:1000000071C000008EC000008CC000008AC00000DB
:1000100088C0000086C0000084C0000082C00000CC
:1000200080C000007EC000007CC000007AC00000DC
:1000300078C0000076C0000074C0000072C00000EC
:1000400070C000006EC000006CC000006AC00000FC
:1000500068C00000E4C0000064C0000062C000008E
:1000600060C000005EC000005CC000005AC000001C
:1000700058C0000056C0000054C0000052C000002C
:1000800050C000004EC000004CC000004AC000003C
:1000900048C0000046C0000044C0000042C000004C
:1000A00040C000003EC000003CC000003AC000005C
:1000B00038C0000036C0000034C0000032C000006C
:1000C00030C000002EC000002CC000002AC000007C
:1000D00028C0000026C0000024C0000022C000008C
:1000E00020C0000011241FBECFEFD1E2DEBFCDBF84
:1000F00000E00CBF12E0A0E0B2E0E6EFF2E000E0CA
:100100000BBF02C007900D92A630B107D9F722E0CD
:10011000A6E0B2E001C01D92A830B207E1F76BD0B3
:10012000E8C06ECF40930202609301028093000208
:100130000895909102029F5F89E8989F812D112474
:100140008295869587702CE3829F90191124909355
:100150000202911121C0909101029F5F89E8989F4E
:10016000812D11248295869587702CE3829F9019AA
:1001700011249093010291110FC0809100028F5FB2
:100180009BEA899F912D112492959F7028E1929F5F
:1001900080191124809300020895CF93DF93D82F04
:1001A000CDEC8C9FC12D1124C695C695C69580E3D4
:1001B0008C0F89D0CC0F8C2F880F880FC80F8D2FF4
:1001C0008C1B805D80D0DF91CF9108958AE07BD039
:1001D0008DE079D08091000290E0DFDF8AE373D078
:1001E0008091010290E0D9DF8AE36DD08091020214
:1001F00090E0D3CF089580E090E04CD005D04FE060
:100200006AE080E08FDFFFCF16BC82E084BD93E020
:1002100095BD80936E0089EF87BD789408951F92F5
:100220000F920FB60F9211240BB60F922F933F939C
:100230004F935F936F937F938F939F93AF93BF93EE
:10024000EF93FF938091060290910702019690939D
:10025000070280930602883E934049F46ADF83E0F8
:1002600092E039D0B3DF1092070210920602FF919C
:10027000EF91BF91AF919F918F917F916F915F911E
:100280004F913F912F910F900BBE0F900FBE0F908B
:100290001F90189522E02093C00028E12093C10010
:1002A00026E02093C200892B39F48FEC90E09093E4
:1002B000C5008093C400089587E690E09093C50040
:1002C0008093C4000895E0ECF0E0908195FFFDCFAD
:1002D0008093C6000895CF93DF93EC018881882333
:1002E00029F02196F0DF89918111FCCFDF91CF9128
:0602F0000895F894FFCF11
:0602F600173B320A0D0067
:00000001FF
