:100000000C9472010C9491010C9491010C94910147
:100010000C9491010C9491010C9491010C94910118
:100020000C9491010C9491010C9491010C94910108
:100030000C9491010C9491010C9491010C949101F8
:100040000C9491010C9491010C9491010C949101E8
:100050000C9491010C9486290C9491010C949101BB
:100060000C9491010C94062D0C94BB2C0C949101D2
:100070000C9491010C9491010C9491010C949101B8
:100080000C9491010C9491010C9491010C949101A8
:100090000C9491010C9491010C9491010C94910198
:1000A0000C9491010C9491010C9491010C94910188
:1000B0000C9491010C9491010C9491010C94910178
:1000C0000C9491010C9491010C9491010C94910168
:1000D0000C9491010C9491010C9491010C94910158
:1000E0000C949101D406D406790DDE0CD406D40606
:1000F000790DDE0CD406D406790DDE0CD406D406B8
:10010000790DDE0CD406D406790D2E0BD406D40658
:10011000790DEC0AD406D406790D180BD406D40652
:10012000790D020B790D790D790D790D790D790D18
:10013000790D790D790D790D790D790D790D790D8F
:10014000790D790D790D790D790D790D790D790D7F
:10015000790D790D790D790D790D790D790D790D6F
:10016000790D790D98079807D406D406D406D406DD
:10017000920C450C790D790D790D790D790D790D6C
:10018000790D790D790D790D790D790D790D790D3F
:10019000790D790D790D790D790D790D790D790D2F
:1001A000790D790D790DA90A790D6E0B790DA90AD2
:1001B000490A920A010D010D790D4E0B790D790D49
:1001C000790D790D790D790D790D790D790D790DFF
:1001D000790D790D790D790D5E0B8E08A806B406A0
:1001E000C006A40959145914251EAB1BDB14DB14DB
:1001F000251EAB1B71147114251EAB1BA114A11479
:10020000251EAB1BB914B914251E8B1A8914891429
:10021000251E491AFD14FD14251E751A1F151F15DC
:10022000251E5F1A251E251E251E251E251E251E80
:10023000251E251E251E251E251E251E251E251EA6
:10024000251E251E251E251E251E251E251E251E96
:10025000251E251E251E251E251E251E251E251E86
:10026000251E251E8815881537155915411441146A
:100270006A1B191B251E251E251E251E251E251E33
:10028000251E251E251E251E251E251E251E251E56
:10029000251E251E251E251E251E251E251E251E46
:1002A000251E251E251E0E1A251ED71A251E251EA3
:1002B000DC186A19F51BF51B251EA61A251E251E1E
:1002C000251E251E251E251E251E251E251E251E16
:1002D000251E251E251E251EC01A9716021416144B
:1002E0002B14571811241FBECFEFD1E2DEBFCDBFB4
:1002F0001AE0A0E0B2E0E0ECFFE500E00BBF02C0D6
:1003000007900D92AC3CB107D9F71DE1ACECBAE017
:1003100001C01D92A737B107E1F70E944A240C944F
:10032000DE2F0C940000EDEBFCE1119211928CE1B8
:10033000ED3CF807D1F71092651D1092641D1092E4
:10034000671D1092661D1092691D1092681D109213
:100350006B1D10926A1D10926D1D10926C1D80E035
:1003600091E09093CE0A8093CD0A0895FB01DC01C1
:10037000AD52B54FED52F54F20E030E08D918193B5
:100380002F5F3F4F42175307C8F70895FC01ED5206
:10039000F54F02C01192019668177907D8F70895B2
:1003A0008F929F92BF92CF92DF92EF92FF920F9324
:1003B0001F93DF93CF93CDB7DEB7EC970FB6F894CA
:1003C000DEBF0FBECDBF6B01FB0110829093D00A40
:1003D0008093CF0A8E01055F1F4F4E010894811C48
:1003E000911C26E0E22EF12CEC0EFD1EBB24B394F2
:1003F00010922C1D8091661D9091671D6091CF0A0F
:100400007091D00A6F5F7F4F7093D00A6093CF0ACC
:10041000615070400E94A0258093591C8091CC0AA5
:10042000813029F48CE29DE1B8010E94102F809167
:10043000591C90E0B80142E00E946327BC018CE2A5
:100440009DE10E94102F2091591C822F8695869540
:10045000869590E080319105B4F48E3091050CF0D2
:10046000FBC08930910549F18A30910524F4089741
:1004700009F0E3C21EC08A30910509F496C00B97BB
:1004800009F0DBC296C08631910509F457C0873167
:1004900091053CF482319105A1F0439709F0CDC25A
:1004A00097C087319105B9F04C97029708F0C5C203
:1004B000D3C0C60160E072E07FC0C60169E072E0AF
:1004C0007BC0277021F0C60162E172E075C0C601F1
:1004D0006BE172E0BDC0C6016FE172E00E94242FA3
:1004E000E091591CE770F0E0EE0FFF1FE355F74F66
:1004F00060817181C6010E94102FC60168E272E01E
:100500000E94102F6091CF0A7091D00A8091661DD1
:100510009091671D0E94B22590935D1C80935C1C96
:10052000B80144E00E946327BC01C6010E94102F5D
:1005300080915C1C90915D1C9070D8C4C6016FE1E5
:1005400072E00E94242FE091591CE770F0E0EE0F5A
:10055000FF1FE153F74F60817181C6010E94102F88
:10056000C60168E272E00E94102F8091661D909192
:10057000671D6091CF0A7091D00A6F5F7F4F7093B3
:10058000D00A6093CF0A615070400E94A0258093EA
:10059000E51B90E0B80142E00E946327BC01C60160
:1005A0000E94102F8CE29DE1BBC7C6016AE272E097
:1005B00003C0C60163E372E00E94242FE091591C3E
:1005C000E770F0E0EE0FFF1FE355F74F0C94FD0CC2
:1005D0002770822F90E08330910539F184309105A6
:1005E00054F481309105C9F082309105D4F4892BFF
:1005F00081F00C94790D85309105F9F085309105E5
:10060000C4F086309105E9F0079711F00C94790D4C
:100610001CC0C6016CE372E01BC0C60160E472E05E
:1006200017C0C60164E472E013C0C60161E572E060
:100630000FC0C6016AE572E00BC0C60160E672E059
:1006400007C0C60165E672E003C0C6016AE672E053
:100650000E94242F0C94790D51E05093E51B40919A
:10066000591C242F30E0C901847F9070843E91058D
:1006700009F0B9C01092E51B43FF05C08091C11C71
:100680009091C21C0BC06091CF0A7091D00A8091EA
:10069000661D9091671D0E94A02590E08093E31B4A
:1006A0009093E41B8091591C873E09F47BC0883EDF
:1006B00048F4853E19F1863E08F04FC0843E09F0AB
:1006C00057C112C08D3EA1F08E3E20F48C3E09F041
:1006D0004FC106C08E3EE9F18F3E09F049C15EC0B0
:1006E000C6016FE672E007C0C6016DE772E009C09F
:1006F000C60169E872E00E94242F3AC1C60167E989
:1007000072E00E94242F8091CF0A9091D00A019626
:100710009093D00A8093CF0A8E01055F1F4F80917E
:10072000E31B9091E41BB80142E00E946327BC01E7
:10073000C6010E94102F8091E31B9091E41BB80129
:1007400042E00E946327BC018CE29DE10E94102FD1
:100750000FC1C60163EA72E0CECFC60161EB72E061
:100760000E94242F8091CF0A9091D00A01969093F5
:10077000D00A8093CF0A8E01055F1F4F8091E31B43
:100780009091E41BB80142E00E946327BC01C601BE
:100790000E94102FC6016AEB72E0CBCFC6016EEB50
:1007A00072E0A9CFC60161EB72E00E94242F809114
:1007B000CF0A9091D00A01969093D00A8093CF0AE5
:1007C0008E01055F1F4F8091E31B9091E41BB801E0
:1007D00042E00E946327BC01C6010E94102FC6019F
:1007E0006CEC72E0A6CFC901807F907080379105D4
:1007F00009F07AC0C9018F7090708730910509F4B3
:100800004FC088309105ACF483309105C9F1843034
:1008100091054CF48130910559F18230910564F5D0
:10082000892B11F1A7C08530910591F10697A4F5A8
:100830002BC08B30910509F443C08C30910534F402
:1008400089309105A9F10A97BCF52EC08D3091052C
:1008500009F43EC08D309105BCF18E309105E1F177
:100860000F9709F087C03CC0C60160ED72E07DC003
:10087000C60169ED72E079C0C60162EE72E075C032
:10088000C6016BEE72E071C0C60164EF72E06DC02C
:10089000C6016DEF72E069C0C60166E073E065C035
:1008A000C6016FE073E061C0C60168E173E05DC03E
:1008B000C60161E273E059C0C6016AE273E055C047
:1008C000C60163E373E051C0C6016CE373E04DC041
:1008D000C60165E473E049C0C6016EE473E045C03B
:1008E000C60167E573E041C0842F887F803E09F52B
:1008F000C9018F7090708130910599F08230910517
:100900001CF4892B91F036C08230910531F00397A9
:1009100089F5C60160E673E028C0C60169E673E0A8
:1009200024C0C60162E773E020C0C6016BE773E034
:100930001CC0883EE9F4493E89F04A3E18F4483E1E
:10094000B9F405C04A3E39F04B3E91F40BC0C601E4
:1009500064E873E0D0CE5093101D0AC0C6016DE864
:1009600073E0C9CEC6016DE873E00E94242F02C077
:1009700000E001C001E08091E51B882311F40C9494
:10098000790D2091CF0A3091D00A0023A1F08091F7
:10099000661D9091671DB9010E94A025992787FDCA
:1009A00090959093941C8093931C8091CF0A909182
:1009B000D00A019610C08091661D9091671DB90103
:1009C0000E94B2259093941C8093931C8091CF0A2F
:1009D0009091D00A02969093D00A8093CF0A80918A
:1009E000931C9091941C2091CF0A3091D00A820FD1
:1009F000931F69E17DE144E00E946327BC01C601C9
:100A00000E94102F8091931C9091941C90935D1CD8
:100A100080935C1C9070002369F469E17DE142E001
:100A20000E946327BC018CE29DE10E94102F8091FF
:100A30005D1C90E069E17DE1C8C58091591C109270
:100A4000591C80935A1C8091661D9091671D60917E
:100A5000CF0A7091D00A6F5F7F4F7093D00A609376
:100A6000CF0A615070400E94B22580935C1C909325
:100A70005D1C8093E51B90915A1C91709093A41C6F
:100A800090E0B80142E00E946327BC01C4010E94CB
:100A9000242F80915C1C90915D1CB80144E00E9461
:100AA0006327BC01C7010E94242F80915A1C8695A0
:100AB00090E08631910581F187319105B4F48A3057
:100AC000910551F18B30910544F48230910521F16B
:100AD0008630910509F0F3C01FC08E309105E1F01A
:100AE0008231910509F0EBC017C08035910509F4FA
:100AF0007EC08135910544F48A31910569F08E31CB
:100B0000910509F0DCC008C08135910509F4A4C045
:100B10008435910509F0D3C082319105B1F183315B
:100B200091057CF486309105C1F1873091051CF464
:100B30000297E1F516C08A309105B9F00E97B1F52C
:100B40001CC08A31910569F18B3191051CF44697DF
:100B500069F50FC08E319105A1F08435910531F50D
:100B600018C0C60166E973E01FC0C60160EA73E001
:100B70001BC0C6016AEA73E017C0C60164EB73E0EC
:100B800013C0C6016EEB73E00FC0C60168EC73E0E2
:100B90000BC0C60162ED73E007C0C6016CED73E0E7
:100BA00003C0C60166EE73E00E94242F8091A41C4E
:100BB000882319F460EF73E002C063EF73E0C601AD
:100BC0000E94102F8091A41C8E01055F1F4F882367
:100BD00029F0C601BE016A5F7F4F1CC6C601BE0177
:100BE0006F5F7F4F0E94102F8091E51BECC48091B6
:100BF0005C1C90915D1C9070B80142E00E946327DC
:100C0000BC018CE29DE10E94102F80915D1C90E060
:100C1000B80142E00E946327BC018CE29DE10E9482
:100C2000102FC60166EF73E00E94102F8091A41C64
:100C3000882319F460E074E002C064E074E0C60147
:100C40000E94102FC601BE016A5F7F4F0E94102FC5
:100C5000C60168E074E00DC680915C1C90915D1C3B
:100C60009070B80142E00E946327BC018CE29DE1D4
:100C70000E94102F80915D1C90E0B80142E00E941C
:100C80006327BC018CE29DE10E94102FC6016AE03F
:100C900074E00E94102FC601B7010E94102FC601F8
:100CA00064E174E00E94102F8091A41C882319F441
:100CB00067E174E002C06AE174E0C601DAC58091C0
:100CC000E51B90E02091591C30915A1C822B932BEC
:100CD00090935A1C8093591C9070B80142E00E9476
:100CE0006327BC018CE29DE10E94102F6091CF0A26
:100CF0007091D00A8091661D9091671D0E94B22567
:100D000080935C1C90935D1C8093E51B90E0B80180
:100D100042E00E946327BC01C4010E94242F8091FD
:100D20005C1C90915D1CB80144E00E946327BC01EB
:100D3000C7010E94242F80915A1C869590E0FC01E7
:100D4000EE58FF4FEE0FFF1F0590F491E02D099430
:100D500010922E1D80915A1C80FD03C06DE174E03D
:100D60001AC061E274E017C010922E1D80915A1CC7
:100D700080FD03C065E274E00EC069E274E00BC060
:100D800010922E1D80915A1C80FD03C06DE274E00C
:100D900002C061E374E0C6010E94242F8091CF0A53
:100DA0009091D00A01976CC582319105DCF48031B5
:100DB00091050CF04AC08630910544F484309105C9
:100DC0000CF047C0029708F061C02FC08830910531
:100DD0000CF45CC08A30910564F10C97029708F01E
:100DE00055C02FC08E3191057CF48C319105CCF526
:100DF000843191050CF44AC086319105F4F048978E
:100E0000029708F043C029C08334910571F18434FE
:100E1000910524F482349105C9F533C086349105D7
:100E2000ACF5C6016FE172E02FC0C60165E374E066
:100E30002BC0C6016EE374E027C0C60167E474E00E
:100E400023C0C60160E574E01FC0C60169E574E017
:100E50001BC0C60162E674E017C0C6016BE674E011
:100E600013C0C60164E774E00FC0C6016DE774E00B
:100E70000E94242F80915A1C8170846880935A1C90
:100E800005C0C60166E874E00E94242F8091CF0A55
:100E90009091D00A0E941029C60165E97CE10E9468
:100EA000102FC60168E272E00E94102FC60165EAA9
:100EB0007CE10E94102F9091591C892F8295869574
:100EC0008695837080935B1C813059F1813020F0CE
:100ED000823009F00EC604C09770963009F009C63A
:100EE00080915C1C8E01055F1F4F90E0B80142E0CD
:100EF0000E946327BC018CE29DE10E94102F80912B
:100F00005D1C90E0B80142E00E946327BC018CE2C6
:100F10009DE10E94102F8091CF0A9091D00A0296F5
:100F2000AFC480915C1C90E0BE01655F7F4F9BC4A5
:100F30006091591C70915A1C8091CF0A9091D00AEF
:100F40004AE45CE10E94BB27BC019093D00A8093E5
:100F5000CF0A8091661D9091671D0E94B2258093F3
:100F60005C1C90935D1C8093E51B80915A1C8170E2
:100F70008093A41C8091591C8695869586958770D0
:100F800090E08330910521F1843091054CF481305B
:100F90009105B1F082309105BCF4892B69F02DC028
:100FA00085309105E9F085309105B4F086309105E2
:100FB000D9F0079711F51CC0C60165E374E01BC0AA
:100FC000C60162E674E017C0C6016EE374E013C0A8
:100FD000C60160E574E00FC0C60169E574E00BC0AE
:100FE000C60167E474E007C0C6016BE674E003C0A5
:100FF000C60164E774E00E94242F8091591C807C14
:10100000803C61F0E091A41CF0E0EE0FFF1FE95F6F
:10101000F64F60817181C6010E94102FC6016AE4FB
:101020007CE10E94102FC60168E272E00E94102F3E
:101030008091A41C882309F45DC080915A1C869578
:1010400080FF2BC08091E51B8093101D87FF03C09C
:101050006FE874E002C061E974E0CE010B960E9473
:10106000242F8091101D87FF03C081958093101D50
:101070008091101D992787FD909565EA7CE142E0FB
:101080000E946327CE010B9665EA7CE10E94102F37
:101090008CE29DE165EA7CE13AC080915C1C8E01A6
:1010A000055F1F4F90E0B80142E00E946327BC013A
:1010B0008CE29DE10E94102F80915D1C90E0B801B0
:1010C00042E00E946327BC018CE29DE10E94102F48
:1010D00080915C1C90915D1CB80144E00E946327E4
:1010E0008091CF0A9091D00A01969093D00A809374
:1010F000CF0A0FC08E01055F1F4F8091E51B90E066
:10110000B80142E00E9463278CE29DE1B8010E9491
:10111000102FC601BE01655F7F4FABC36091CF0A40
:101120007091D00A8091661D9091671D0E94B22532
:1011300080935C1C90935D1C8093E51B6091591C0F
:1011400070915A1C8091CF0A9091D00A4AE45CE1D8
:101150000E94BB279093D00A8093CF0A9091591C8C
:10116000892F829586958695837080935B1C81304C
:1011700049F0813018F0823039F50BC09770963005
:1011800019F507C080915C1C90E0BE01655F7F4F40
:1011900013C080915C1C8E01055F1F4F90E0B80169
:1011A00042E00E946327BC018CE29DE10E94102F67
:1011B00080915D1C90E0B80142E00E946327BC0171
:1011C0008CE29DE10E94102F6091CF0A7091D00AAD
:1011D0008091661D9091671D0E94B22580935C1CD2
:1011E00090935D1C8093E51B80915A1C81708093C5
:1011F000A41C1092151D8091591C86958695869584
:10120000877090E08430910531F1853091054CF480
:1012100082309105C1F083309105CCF4892B51F0D7
:101220002BC086309105F9F086309105C4F0079700
:1012300019F51DC0C60166E874E00E94242F81E004
:101240008093151D19C0C60163E974E013C0C6017F
:101250006CE974E00FC0C60165EA74E00BC0C6011A
:101260006EEA74E007C0C60167EB74E003C0C60114
:1012700060EC74E00E94242F8091591C807C803C9B
:1012800061F0E091A41CF0E0EE0FFF1FE95FF64F64
:1012900060817181C6010E94102FC6016AE47CE161
:1012A0000E94102F8091151D882329F0C60168E245
:1012B00072E00E94102F8091591C887309F019C4A4
:1012C00080915A1C8E01055F1F4F80FF2CC08091BA
:1012D0005C1C90915D1C9070B80142E00E946327F5
:1012E000BC018CE29DE10E94102F80915D1C90E07A
:1012F000B80142E00E946327BC018CE29DE10E949C
:10130000102F80915C1C90915D1CB80144E00E94FC
:1013100063278091CF0A9091D00A01969093D00ACA
:101320008093CF0A0CC08091E51B90E0B80142E0A9
:101330000E9463278CE29DE1B8010E94102FC60134
:10134000BE01655F7F4FD3C36091CF0A7091D00A11
:101350008091661D9091671D0E94B22580935C1C50
:1013600090935D1C8093E51B6091591C70915A1CF1
:101370008091CF0A9091D00A4AE45CE10E94BB2799
:101380009093D00A8093CF0A9091591C892F82950F
:1013900086958695837080935B1C813049F08130FF
:1013A00018F0823039F50BC09770963019F507C0E8
:1013B00080915C1C90E0BE01655F7F4F13C08091FF
:1013C0005C1C8E01055F1F4F90E0B80142E00E9457
:1013D0006327BC018CE29DE10E94102F80915D1C6F
:1013E00090E0B80142E00E946327BC018CE29DE1DD
:1013F0000E94102F80915A1C81708093A41C8091B0
:10140000591C869586958695877090E08330910566
:1014100091F1843091054CF481309105A1F0823036
:1014200091054CF5892B59F064C38530910539F14C
:101430008530910524F1069709F05BC324C0C601ED
:1014400060E072E003C0C60169E072E00E94242FF0
:101450008091591C807C803C09F460C2E091A41CFE
:10146000F0E0EE0FFF1FE95FF64F60817181C6016A
:101470000E94102F53C2C60164E873E007C0C60182
:101480006DE873E003C0C6016AE272E00E94242F97
:1014900045C210922E1DC60169EC74E00E94242FF3
:1014A0006091CF0A7091D00A615070407093D00A59
:1014B0006093CF0A80915A1C80FF20C08091661DE6
:1014C0009091671D0E94A02580935C1C10925D1C6A
:1014D00090E0BE01655F7F4F42E00E946327BC0140
:1014E0008CE29DE10E94102F8091CF0A9091D00A4A
:1014F00001969093D00A8093CF0A06C083E090E0D3
:1015000090935D1C80935C1C8E01055F1F4F809142
:101510005C1C90915D1CB80142E00E946327C601EB
:10152000B801E5C210922E1D8091CF0A9091D00A89
:1015300001979093D00A8093CF0A80915A1C80FF24
:1015400004C0C60162ED74E083C8C60167ED74E0B3
:101550007FC810922E1DC6016CED74E00E94242FEE
:101560006091CF0A7091D00A615070407093D00A98
:101570006093CF0A80915A1C80FDBBC28091661D8A
:101580009091671D0E94B22590935D1C80935C1C16
:101590008E01055F1F4FB80144E00E946327C6011A
:1015A000B8010E94102F80915C1C90915D1C90707E
:1015B000B80142E00E946327BC018CE29DE10E94D9
:1015C000102F80915D1C90E0B80142E00E946327DB
:1015D000BC018CE29DE18BC28091CF0A9091D00A30
:1015E00001979093D00A8093CF0A80915A1C80FF74
:1015F00002C00C94F801B092CC0A88EB9CE161EE39
:1016000074E041C08091CF0A9091D00A01979093E5
:10161000D00A8093CF0A80915A1C80FF02C00C949C
:10162000F801B092CC0A88EB9CE165EE74E02BC027
:101630008091CF0A9091D00A01979093D00A80931D
:10164000CF0A80915A1C80FF02C00C94F801B0921E
:10165000CC0A88EB9CE169EE74E015C08091CF0A5A
:101660009091D00A01979093D00A8093CF0A8091ED
:101670005A1C80FF02C00C94F801B092CC0A88EB8F
:101680009CE16DEE74E00E94242F10922E1DC80183
:101690006CE27DE10E94242F0C94F80110922E1D23
:1016A0008091CF0A9091D00A01979093D00A8093AD
:1016B000CF0AC60161EF74E00C94280310922E1D2E
:1016C0008091CF0A9091D00A01979093D00A80938D
:1016D000CF0AC60166EF74E00C942803C6016FE1DF
:1016E00072E00E94242F6091591C70915A1C8091C5
:1016F000CF0A9091D00A4AE45CE10E94BB27909304
:10170000D00A8093CF0AE091A41CF0E0EE0FFF1FF7
:10171000E95FF64F60817181C6010E94102FC601FA
:101720006AE47CE10E94102FC60168E272E00E9428
:10173000102F9091591C892F8295869586958370DC
:1017400080935B1C813059F0813028F0823071F039
:101750008330A9F525C09770963089F507C0809130
:101760005C1C90E0BE01655F7F4F13C080915C1CE4
:101770008E01055F1F4F90E0B80142E00E94632791
:10178000BC018CE29DE10E94102F80915D1C90E0D5
:10179000B80142E00E946327BC018CE29DE10DC0CC
:1017A000C6016FE172E00E94242FC6016AE47CE169
:1017B0000E94102FC60168E272E00E94102F8091F3
:1017C000591C887309F057C08091A41C2091CF0A3E
:1017D0003091D00A8E01055F1F4F882371F18091EF
:1017E000661D9091671DB9010E94B22590935D1C02
:1017F00080935C1C2091CF0A3091D00A2F5F3F4F1D
:101800003093D00A2093CF0AB80144E00E946327A6
:10181000BC01C6010E94102F80915C1C90915D1C40
:101820009070B80142E00E946327BC018CE29DE108
:101830000E94102F80915D1C14C08091661D9091B4
:10184000671DB9010E94A0258093E51B90E0B801B7
:1018500042E00E946327BC01C6010E94102F8091C4
:10186000E51B90E0B80142E00E946327BC018CE2D6
:101870009DE10E94102F8091CF0A9091D00A01968D
:101880009093D00A8093CF0A34C1C6016FE172E011
:101890000E94242FE091591CE695E695E695E770A5
:1018A000E093181DF0E0EE0FFF1FE551F74F608148
:1018B0007181C6010E94102F80915A1C80FD14C0B6
:1018C000816080935A1C6091591C70915A1C8091C0
:1018D000CF0A9091D00A45EA5CE10E94BB27909321
:1018E000D00A8093CF0AFBC0C60163E372E00E9476
:1018F000242F6091591C70915A1C8091CF0A9091AD
:10190000D00A4AE45CE10E94BB279093D00A8093FE
:10191000CF0A8091181D882309F0EBC0C6016AE444
:101920007CE1E5C0C6016FE172E00E94242FE091E6
:10193000591CE695E695E695E770E093901CF0E07B
:10194000EE0FFF1FE551F74F6081718185EA9CE141
:101950000E94242F80915A1C2091CF0A3091D00AE6
:1019600080FD11C0816080935A1C6091591C709158
:101970005A1CC9014AE45CE10E94BB279093D00A3B
:101980008093CF0AA7C06091591C70915A1CC9015D
:101990004AE45CE10E94BB279093D00A8093CF0A6F
:1019A000C6016AEF74E00E94242FC60165EA7CE15B
:1019B0000E94102FC6016FEF74E099C0959587952E
:1019C00095958795837090709093631D8093621DA9
:1019D00080915A1C80FF04C0C60163E372E003C01B
:1019E000C6016AE272E00E94102FE091621DF09140
:1019F000631DEE0FFF1FE551F74F60817181C60136
:101A000076C08091591C86958695869587708093BF
:101A1000901C80915A1C81708093A41C6091591C69
:101A200070915A1C8091CF0A9091D00A4AE45CE1EF
:101A30000E94BB2780915A1C869580FF05C085EACD
:101A40009CE164E075E004C085EA9CE167E075E034
:101A50000E94242F8091901C8330D1F0843028F490
:101A6000813071F0823080F407C08530C9F0853054
:101A700098F08730F1F418C0C60169E075E017C02E
:101A8000C60162E175E013C0C6016BE175E00FC0ED
:101A9000C60164E275E00BC0C6016DE275E007C0E7
:101AA000C60166E375E003C0C6016FE375E00E94FE
:101AB000242F8091591C807C803C61F0E091A41C13
:101AC000F0E0EE0FFF1FE95FF64F60817181C60104
:101AD0000E94102FC6016AE47CE10E94102FC6010B
:101AE00068E272E00E94102FC60165EA7CE10E9464
:101AF000102F8CE2E82E8DE1F82EF70101900020E6
:101B0000E9F73197EE19FF094EE04E1B4093E51BB4
:101B10008E01055F1F4FC8016BE079E050E00E9425
:101B20002B2F8091E51BF801E80FF11D1082C701F2
:101B3000B8010E94102FC701B6010E94102FC601E4
:101B4000B7010E94242FEC960FB6F894DEBF0FBEAB
:101B5000CDBFCF91DF911F910F91FF90EF90DF905C
:101B6000CF90BF909F908F90089588E495E00E9459
:101B7000742B8BE495E00E94742B83E695E00E9421
:101B8000742B8BE795E00E94742B8AE995E00E9404
:101B9000742B85EB95E00E94742B85EC95E00E94F8
:101BA000742B85ED95E00E94742B8AEE95E00E94DF
:101BB000742B8AEF95E00E94742B88E196E00E94D6
:101BC000742B83E396E00E94742B83E496E00E94DA
:101BD000742B83E596E00E94742B84E796E00E94C4
:101BE000742B84E896E00E94742B8CE996E00E94A6
:101BF000742B8CEA96E00E94742B8CEB96E00E948A
:101C0000742B08958EEC96E00E94742B86ED96E07E
:101C10000E94742B88E495E00E94742B089586310D
:101C2000F1F0813221F0883009F081C022C080912A
:101C3000BE1C823051F0883069F0813009F077C0E5
:101C40000E94812B8093BD1C02C08091C11C0E9408
:101C5000712B08950E94812B8093BD1C0895809163
:101C6000BE1C813009F063C00E94A92B8093BE1C6A
:101C7000089580E090E060E270E00E94B225892B38
:101C800009F455C06091C51C7091C61C625070402B
:101C90007093C61C6093C51C40916C1D50916D1DC6
:101CA0008091681D9091691D0E94DC2580916D1DB9
:101CB0008C7F80936D1D6091C51C7091C61C625015
:101CC00070407093C61C6093C51C4091BF1C50911E
:101CD000C01C8091681D9091691D0E94DC25609157
:101CE000C51C7091C61C625070407093C61C6093F6
:101CF000C51C4091CD0A5091CE0A8091681D9091EB
:101D0000691D0E94DC2580E090E060E270E00E94A6
:101D1000B2259093CE0A8093CD0A80E090E062E2F3
:101D200070E00E94B2259093C01C8093BF1C089560
:101D3000EF92FF920F931F93CF93DF93CDEBDCE1F4
:101D400011E08091661D9091671D6091CD0A7091A0
:101D5000CE0A6F5F7F4F7093CE0A6093CD0A6150B9
:101D600070400E94A025082F8093591C8695869567
:101D7000869590E080319105BCF48E3091050CF091
:101D800070C18930910509F443C08A30910524F46B
:101D9000089709F079C320C08A30910509F4AFC0D3
:101DA0000B9709F071C3C6C08631910509F483C051
:101DB0008731910544F48231910509F445C0439778
:101DC00009F062C3D5C08731910509F456C04C971C
:101DD000029708F059C345C110916C1D117007702E
:101DE000E02FF0E0EE0FFF1FE354F34E40815181EE
:101DF0004F5F5F4F518340836FB781E00E947F2424
:101E000080916C1D8E7F812B80936C1D0C94251E00
:101E10000770E02FF0E0EE0FFF1FE354F34E408118
:101E20005181415050405183408310916C1D11707D
:101E30006FB781E00E947F2480916C1D8E7F812B83
:101E400080936C1D0C94251E8091BD1C9091BE1C2E
:101E500090935D1C80935C1C0770E02FF0E0EE0F08
:101E6000FF1FE354F34E208131813093BE1C209339
:101E7000BD1C918380830C94251E077010E0609137
:101E8000CD0A7091CE0A8091661D9091671D0E94C7
:101E9000B225000F111F0354134EF8019183808364
:101EA0008091CD0A9091CE0A02969093CE0A8093AB
:101EB000CD0A0C94251E077010E08091661D90914C
:101EC000671D6091CD0A7091CE0A6F5F7F4F70934E
:101ED000CE0A6093CD0A615070400E94A025F8019F
:101EE000E370F070EE0FFF1F159507951595079598
:101EF000E00FF11FE354F34E80830C94251E609194
:101F0000C51C7091C61C625070407093C61C6093D3
:101F1000C51C0770E02FF0E0EE0FFF1FE354F34EF7
:101F2000408151818091681D9091691D0E94DC253E
:101F30000C94251E077010E06091C51C7091C61CA2
:101F40008091681D9091691D0E94B225000F111F9C
:101F50000354134EF801918380838091C51C9091A6
:101F6000C61C02969093C61C8093C51C0C94251E1B
:101F7000077010E00430110579F1053011054CF4BB
:101F80000115110599F00130110511F00C94251E71
:101F900015C00630110509F44EC00630110594F144
:101FA0000730110511F00C94251E55C08091BD1C01
:101FB000880F880B8093BE1C0C94251E8091BE1C3C
:101FC000992787FD9095990F880B982F9093C21CA5
:101FD0008093C11C0C94251E6091C51C7091C61C79
:101FE000625070407093C61C6093C51C40916C1D7C
:101FF00050916D1D8091681D9091691D0E94DC2596
:102000000C94251E6091C51C7091C61C8091681DA2
:102010009091691D0E94B22590936D1D80936C1D57
:102020008091C51C9091C61C02969093C61C80930B
:10203000C51C0C94251E2091BE1C30E080916C1DA7
:1020400090916D1D8070282B392B30936D1D20933E
:102050006C1D0C94251E80916C1D8093BE1C0C94ED
:10206000251E1092101D4091591C242F30E0C901EB
:10207000847F9070843E910509F08EC043FF05C0B7
:102080008091C11C9091C21C0BC06091CD0A7091CF
:10209000CE0A8091661D9091671D0E94A02590E058
:1020A0008093E31B9093E41B8091591C873E09F4B5
:1020B00066C0883E48F4853EA9F1863E08F04CC0D3
:1020C000843E09F09AC117C08D3E19F18E3E20F46E
:1020D0008C3E09F092C106C08E3EA9F18F3E09F0F8
:1020E0008CC144C08091CD0A9091CE0A0197909303
:1020F000CE0A8093CD0A4091E31B5091E41B2091BE
:10210000BD1C80E060E030E00E94AF298093BD1CE0
:1021100074C18091CD0A9091CE0A01979093CE0A16
:102120008093CD0A4091E31B5091E41B2091BD1C8C
:102130003091BE1C80E061E00E94AF299093BE1CEC
:102140008093BD1C5AC18091CD0A9091CE0A01970F
:102150009093CE0A8093CD0A4091E31B5091E41BEB
:102160002091BD1C81E060E030E013C08091CD0A79
:102170009091CE0A01979093CE0A8093CD0A409118
:10218000E31B5091E41B2091BD1C3091BE1C81E0EB
:1021900061E00E94AF2931C1C901807F9070803712
:1021A000910509F0B1C0C9018F7090708730910519
:1021B00009F451C088309105BCF48330910509F4CD
:1021C0003FC0843091054CF48130910579F1823023
:1021D00091058CF5892B29F112C18530910509F4FF
:1021E000DBC0069794F5C8C08B30910509F448C050
:1021F0008C30910534F489309105C1F10A97DCF5F2
:1022000030C08D30910509F44FC08D3091050CF42C
:102210003CC08E30910509F456C00F9709F0EFC00D
:1022200061C080916D1D83FFEAC0E3C080916D1D88
:1022300083FDE5C0DEC080916C1D80FFE0C0D9C089
:1022400080916C1D80FDDBC0D4C080916C1D8174B9
:1022500009F4D5C0CEC080916C1D817409F0CFC047
:10226000C8C080916C1D87FFCAC0C3C080916C1D1F
:1022700087FDC5C0BEC080916C1D82FFC0C0B9C0C3
:1022800080916C1D82FDBBC0B4C090916C1D991FE4
:102290009927991F80916D1D8695869586958170E9
:1022A000981709F0A6C0ABC090916C1D991F992793
:1022B000991F80916D1D86958695869581709817DA
:1022C00009F09DC096C090916C1D991F9927991F88
:1022D00080916D1D8695869586958170981709F079
:1022E00088C04AC020916C1D922F991F9927991F71
:1022F00080916D1D8695869586958170981709F059
:102300007EC026FD7CC075C0842F887F803E09F08A
:1023100048C0C9018F7090708130910509F18230F9
:1023200091051CF4892B69F16AC08230910559F03E
:10233000039709F064C08091BF1C9091C01C892B49
:1023400009F05DC056C08091BF1C9091C01C0197E0
:102350009093C01C8093BF1C892B09F450C049C0C6
:102360008091BF1C9091C01C01979093C01C8093DA
:10237000BF1C892B09F443C080916C1D86FF3FC0B0
:1023800038C08091BF1C9091C01C01979093C01CD5
:102390008093BF1C892B99F180916C1D86FD2FC005
:1023A00028C0883E51F5493E01F14A3E18F4483EA6
:1023B00021F505C04A3EC9F04B3EF9F41AC06091C0
:1023C000C51C7091C61C625070407093C61C60930F
:1023D000C51C4091CD0A5091CE0A4E5F5F4F80914F
:1023E000681D9091691D0E94DC2581E08093101D7D
:1023F00004C081E08093101D02C090E001C091E014
:102400008091101D8130A9F56091CD0A7091CE0A9E
:10241000992371F08091661D9091671D0E94A025FF
:10242000992787FD90959093941C8093931C13C0DB
:102430008091661D9091671D0E94B2259093941C17
:102440008093931C8091CD0A9091CE0A019690932F
:10245000CE0A8093CD0A8091CD0A9091CE0A209128
:10246000931C3091941C820F931F9093CE0A8093FB
:10247000CD0A8091CD0A9091CE0A01969093CE0A12
:102480008093CD0A0C94251E8091591C1092591CE2
:1024900080935A1C8091661D9091671D6091CD0AB2
:1024A0007091CE0A6F5F7F4F7093CE0A6093CD0A12
:1024B000615070400E94B22580935C1C90935D1C1B
:1024C0008093E51B80915A1C482F41704093A41CB7
:1024D000D093121DC093111D869590E08631910511
:1024E00009F465C087319105B4F48A30910509F487
:1024F00044C08B3091053CF48230910521F1069760
:1025000009F053C1D6C08E30910509F46AC04297D4
:1025100009F04BC19AC08035910509F4FEC08135A0
:10252000910544F48A31910509F4DDC04E9709F014
:102530003CC171C08135910509F413C18435910501
:1025400009F033C19CC020915C1C30915D1C80E07F
:10255000642FAE010E94D3248091A41C882311F41F
:102560000C94251E8091CD0A9091CE0A01969093ED
:10257000CE0A8093CD0A0C94251E20915C1C3091CC
:102580005D1C81E0642FAE010E94D3248091A41CC5
:10259000882311F40C94251E8091CD0A9091CE0AC7
:1025A00001969093CE0A8093CD0A0C94251E20911B
:1025B0005C1C30915D1C82E0642FAE010E94D3242C
:1025C0008091A41C882311F40C94251E8091CD0ABF
:1025D0009091CE0A01969093CE0A8093CD0A0C94E6
:1025E000251E20915C1C30915D1C83E0642FAE01A0
:1025F0000E94D3248091A41C882311F40C94251EDE
:102600008091CD0A9091CE0A01969093CE0A809344
:10261000CD0A0C94251E20915C1C30915D1C84E039
:10262000642FAE010E94D3248091A41C882311F44E
:102630000C94251E8091CD0A9091CE0A019690931C
:10264000CE0A8093CD0A0C94251E20915C1C3091FB
:102650005D1C85E0642FAE010E94D3248091A41CF0
:10266000882311F40C94251E8091CD0A9091CE0AF6
:1026700001969093CE0A8093CD0A0C94251E20914A
:102680005C1C30915D1C86E0642FAE010E94D32457
:102690008091A41C882311F40C94251E8091CD0AEE
:1026A0009091CE0A01969093CE0A8093CD0A0C9415
:1026B000251E20915C1C30915D1C87E0642FAE01CB
:1026C0000E94D3248091A41C882311F40C94251E0D
:1026D0008091CD0A9091CE0A01969093CE0A809374
:1026E000CD0A0C94251E20915C1C30915D1C88E065
:1026F000642FAE010E94D3248091A41C882311F47E
:102700000C94251E8091CD0A9091CE0A019690934B
:10271000CE0A8093CD0A0C94251E60915C1C7091AA
:102720005D1C442359F080916A1D90916B1D0E949D
:10273000B2259093BE1C8093BD1C08C080916A1D79
:1027400090916B1D0E94A0258093BD1C8091CD0AA5
:102750009091CE0A01969093CE0A8093CD0A0C9464
:10276000251E60915C1C70915D1C442359F04091C2
:10277000BD1C5091BE1C80916A1D90916B1D0E94E2
:10278000DC2508C080916A1D90916B1D4091BD1C95
:102790000E94CC258091CD0A9091CE0A019690930B
:1027A000CE0A8093CD0A0C94251E2091E51B30E0C3
:1027B0008091591C90915A1C822B932B90935A1CF8
:1027C0008093591C6091CD0A7091CE0A8091661D4C
:1027D0009091671D0E94B22580935C1C90935D1CB4
:1027E0008093E51BE0915A1C8E2F81708093A41C6E
:1027F000E695F0E0EE50FF4FEE0FFF1F0590F491CD
:10280000E02D099490915A1C917080916C1D8E7FDF
:10281000892B80936C1D8091CD0A9091CE0A0197EF
:102820009093CE0A8093CD0A0C94251E90915A1C49
:102830009170990F80916D1D8D7F892B80936D1DF7
:102840008091CD0A9091CE0A01979093CE0A809301
:10285000CD0A0C94251E90915A1C9170990F990FD6
:1028600080916D1D8B7F892B80936D1D8091CD0A8A
:102870009091CE0A01979093CE0A8093CD0A0C9442
:10288000251E0E94272780915A1CE091111DF0916E
:10289000121DA091161DB091171D80FF06C08081EA
:1028A00091818D939C930C94251E80818C930C9424
:1028B000251E0E9427274091161D5091171D6091DB
:1028C000A41CE091111DF091121D662319F02081C6
:1028D000318102C0208130E080E00E94D3240C943A
:1028E000251E0E9427274091161D5091171D6091AB
:1028F000A41CE091111DF091121D662319F0208196
:10290000318102C0208130E081E00E94D3240C9408
:10291000251E0E9427274091161D5091171D60917A
:10292000A41CE091111DF091121D662319F0208165
:10293000318102C0208130E082E00E94D3240C94D7
:10294000251E0E9427274091161D5091171D60914A
:10295000A41CE091111DF091121D662319F0208135
:10296000318102C0208130E083E00E94D3240C94A6
:10297000251E0E9427274091161D5091171D60911A
:10298000A41CE091111DF091121D662319F0208105
:10299000318102C0208130E085E00E94D324809103
:1029A0006C1D8E7F80936C1D80916D1D877F809341
:1029B0006D1D0C94251E0E9427274091161D5091D5
:1029C000171D6091A41CE091111DF091121D66234A
:1029D00019F02081318102C0208130E087E00E941F
:1029E000D32480916C1D8E7F80936C1D80916D1D12
:1029F000877F80936D1D0C94251E0E942727409190
:102A0000161D5091171D6091A41CE091111DF091AD
:102A1000121D662319F02081318102C0208130E02F
:102A200088E00E94D32480916C1D8E7F80936C1D62
:102A300080916D1D877F80936D1D0C94251E0E94D3
:102A400027274091161D5091171D6091A41CE091FD
:102A5000111DF091121D662319F02081318102C0F1
:102A6000208130E084E00E94D3240C94251E0E9433
:102A700027274091161D5091171D6091A41CE091CD
:102A8000111DF091121D662319F02081318102C0C1
:102A9000208130E086E00E94D32480916C1D8E7FDF
:102AA00080936C1D80916D1D877F80936D1D0C94AC
:102AB000251E0E94272780915A1CE091111DF0913C
:102AC000121DA091161DB091171D80FF13C08D918E
:102AD0009C91119790935D1C80935C1C80819181E7
:102AE0008D939C9380915C1C90915D1C918380835D
:102AF0000C94251E8C918093E51B80818C93E09132
:102B0000111DF091121D8091E51B80830C94251EF0
:102B10008091591C90915A1C0E9408269093171D71
:102B20008093161D6091CD0A7091CE0A8091661D2A
:102B30009091671D0E94B225282F80935C1C909372
:102B40005D1C8093E51B1092A41C90915A1C90FF71
:102B500019C081E08093A41C892F869580FF09C04D
:102B6000822F992787FD909590935D1C80935C1C24
:102B700009C08091CD0A9091CE0A01969093CE0A19
:102B80008093CD0A8091CD0A9091CE0A01969093C0
:102B9000CE0A8093CD0A8091591C8695869586959C
:102BA000877090E08330910509F45DC08430910511
:102BB0005CF48130910571F1823091050CF03FC0D9
:102BC000892B99F00C94251E8530910509F473C06A
:102BD000853091050CF45BC08630910509F47FC007
:102BE000079711F00C94251E8EC04091161D509130
:102BF000171D6091A41C662329F020915C1C309164
:102C00005D1C03C02091E51B30E080E00E94D324CE
:102C10000C94251E4091161D5091171D6091A41C07
:102C2000662329F020915C1C30915D1C03C020912B
:102C3000E51B30E087E00E94D3240C94251E4091D0
:102C4000161D5091171D6091A41C662329F0209138
:102C50005C1C30915D1C03C02091E51B30E081E0DD
:102C60000E94D324F2C74091161D5091171D609108
:102C7000A41C662329F020915C1C30915D1C03C0CC
:102C80002091E51B30E083E00E94D324DEC7409111
:102C9000161D5091171D6091A41C662329F02091E8
:102CA0005C1C30915D1C03C02091E51B30E085E089
:102CB0000E94D324CAC74091161D5091171D6091E0
:102CC000A41C662329F020915C1C30915D1C03C07C
:102CD0002091E51B30E082E00E94D324B6C74091EA
:102CE000161D5091171D6091A41C662329F0209198
:102CF0005C1C30915D1C03C02091E51B30E088E036
:102D00000E94D324A2C74091161D5091171D6091B7
:102D1000A41C662329F020915C1C30915D1C03C02B
:102D20002091E51B30E084E00E94D3248EC780917F
:102D3000591C90915A1C0E940826EC019093B71CD4
:102D40008093B61C60915A1C61706093A41C8091A2
:102D5000591C869586958695877090E084309105FC
:102D600009F456C08530910554F482309105A9F1DB
:102D7000833091050CF03EC0892B69F066C7863020
:102D8000910509F4E2C0863091050CF488C00797DC
:102D900009F05BC737C1662329F020915C1C309194
:102DA0005D1C03C02091E51B30E086E0AE010E946F
:102DB000D32480916C1D8E7F80936C1D80916D1D3E
:102DC000877F80936D1D8091CD0A9091CE0A0196E8
:102DD0009093CE0A8093CD0A38C7662339F0888154
:102DE000998180959095998388832FC78881809554
:102DF00088832BC7662341F08881998190958195BE
:102E00009F4F9983888321C78881819588831DC7B7
:102E1000662319F16881798180E090E02091BD1CE2
:102E20003091BE1C40E050E00E944E2D60935E1D2C
:102E300070935F1D8093601D9093611D7093BE1C05
:102E40006093BD1CBC01882799277093C21C6093B6
:102E5000C11C90E0672B81F00EC088812091BD1CC1
:102E6000829FC00111249093BE1C8093BD1C90E0F2
:102E70008091BE1C811191E080916C1D8E7F892B09
:102E800080936C1D90916C1D9170990F990F990F03
:102E900080916D1D877F892B80936D1DD6C666231B
:102EA00071F168817981882777FD8095982F20912D
:102EB000BD1C3091BE1C442737FD4095542F0E9405
:102EC0004E2D6093DF1B7093E01B8093E11B90936A
:102ED000E21B7093BE1C6093BD1CBC01992777FD5B
:102EE0009095892F9B017093C21C6093C11C8091A7
:102EF000BE1C87FF18C02F3F3105A9F410C0888180
:102F00002091BD1C8202C00111249093BE1C8093AD
:102F1000BD1C87FF08C08091BE1C8F3F21F48091AB
:102F20006C1D8E7F03C080916C1D816080936C1D31
:102F300090916C1D9170990F990F990F80916D1D53
:102F4000877F892B80936D1D80C66623E1F12881E0
:102F500039812115310529F48FED96E00E94742BFB
:102F600074C6E090C11CF090C21C00E010E0870124
:102F7000FF24EE248091BD1C9091BE1CA0E0B0E027
:102F8000E82AF92A0A2B1B2BE0925E1DF0925F1DA6
:102F90000093601D1093611D40E050E0C801B7012F
:102FA0000E94A02D3093BE1C2093BD1C2881398126
:102FB00040E050E0C801B7010E94A02D7093C21CF0
:102FC0006093C11C42C68881882329F48FED96E066
:102FD0000E94742B3AC62091BD1C3091BE1C3093C8
:102FE0005D1C20935C1C6881C90170E00E94792DF2
:102FF0006093BD1C6881C90170E00E94792D8093A7
:10300000BE1C23C66623C1F1E090C11CF090C21C17
:1030100000E010E08701FF24EE248091BD1C909118
:10302000BE1CA0E0B0E0E82AF92A0A2B1B2BE09294
:10303000DF1BF092E01B0093E11B1093E21B288141
:103040003981442737FD4095542FC801B7010E94AC
:10305000C22D3093BE1C2093BD1C2881398144278A
:1030600037FD4095542FC801B7010E94C22D7093BF
:10307000C21C6093C11CE9C52091BD1C3091BE1CCF
:103080003093941C2093931C6881772767FD70957B
:10309000C9010E948D2D6093BD1C6881772767FD53
:1030A0007095C9010E948D2D8093BE1CCEC5809164
:1030B000591C90915A1C0E940826FC019093B71C41
:1030C0008093B61C8091591C86958695869587704D
:1030D00090E0843091054CF48230910594F500978E
:1030E00061F0019709F0B1C51AC0863091050CF462
:1030F00049C0069709F0A9C54CC010916C1D11700C
:1031000080E06091A41CAF0121E030E00E94D32454
:1031100080916C1D8E7F812B80936C1D96C51091C4
:103120006C1D117082E06091A41CAF0121E030E0C1
:103130000E94D32480916C1D8E7F812B80936C1D07
:1031400084C56091C51C7091C61C6250704070931C
:10315000C61C6093C51C4091CD0A5091CE0A4E5FAB
:103160005F4F8091681D9091691D0E94DC25E09160
:10317000B61CF091B71C808191819093CE0A809308
:10318000CD0A63C5808191819093CE0A8093CD0A48
:103190005CC56091C51C7091C61C625070407093F4
:1031A000C61C6093C51C408151818091681D90911F
:1031B000691D0E94DC2549C56091CD0A7091CE0A37
:1031C000615070407093CE0A6093CD0A80915A1C72
:1031D00080FF12C08091661D9091671D0E94A025FE
:1031E0008093E51B8091CD0A9091CE0A0196909331
:1031F000CE0A8093CD0A03C083E08093E51B8091C3
:10320000E51B813211F0863119F40E940F0E1DC5A5
:103210006091C51C7091C61C625070407093C61CB2
:103220006093C51C40916C1D50916D1D8091681D6F
:103230009091691D0E94DC2580916D1D8C7F80938B
:103240006D1D6091C51C7091C61C625070407093DA
:10325000C61C6093C51C4091BF1C5091C01C80913E
:10326000681D9091691D0E94DC256091C51C7091BC
:10327000C61C625070407093C61C6093C51C409180
:10328000CD0A5091CE0A8091681D9091691D0E94CF
:10329000DC256091E51B70E0660F771F660F771FD6
:1032A00080E090E00E94B2259093CE0A8093CD0AF0
:1032B0006091E51B70E0660F771F660F771F6E5FEA
:1032C0007F4F80E090E00E94B2259093C01C8093D5
:1032D000BF1CBBC480915A1C80FF40C06091C51CBC
:1032E0007091C61C8091681D9091691D0E94B22545
:1032F0009093CE0A8093CD0A6091C51C7091C61C34
:103300006E5F7F4F7093C61C6093C51C8091681DD3
:103310009091691D0E94B2259093C01C8093BF1CA0
:103320006091C51C7091C61C6E5F7F4F7093C61C68
:103330006093C51C8091681D9091691D0E94B22503
:1033400090936D1D80936C1D8091C51C9091C61C3F
:1033500002969093C61C8093C51C77C46091C51CCF
:103360007091C61C625070407093C61C6093C51C5F
:1033700040916C1D50916D1D8091681D9091691D4B
:103380000E94DC2580916D1D8C7F80936D1D609166
:10339000C51C7091C61C625070407093C61C60932F
:1033A000C51C4091BF1C5091C01C8091681D90911C
:1033B000691D0E94DC256091C51C7091C61C62507D
:1033C00070407093C61C6093C51C4091CD0A50910B
:1033D000CE0A8091681D9091691D0E94DC2584E0D1
:1033E0008093E51B80E090E060E170E00E94B225F0
:1033F0009093CE0A8093CD0A6091E51B70E0660F32
:10340000771F660F771F6E5F7F4F80E090E00E940E
:10341000B2259093C01C8093BF1C17C46091CD0A45
:103420007091CE0A615070407093CE0A6093CD0ABD
:1034300080915A1C80FF05C010925D1C10925C1C8C
:103440000AC08091661D9091671D0E94B2259093DD
:103450005D1C80935C1C6091C51C7091C61C8091A2
:10346000681D9091691D0E94B2259093CE0A8093A9
:10347000CD0A8091C51C9091C61C20915C1C309196
:103480005D1C820F931F02969093C61C8093C51CEF
:10349000DCC38091CD0A9091CE0A01979093CE0A19
:1034A0008093CD0A80915A1C80FF02C00C94A10E1B
:1034B0001093CC0A8091661D9091671D41C0809148
:1034C000CD0A9091CE0A01979093CE0A8093CD0AAF
:1034D00080915A1C80FF02C00C94A10E1093CC0A5C
:1034E00080916A1D90916B1D2BC08091CD0A9091A7
:1034F000CE0A01979093CE0A8093CD0A80915A1CF0
:1035000080FF02C00C94A10E1093CC0A8091681D1C
:103510009091691D15C08091CD0A9091CE0A0197B6
:103520009093CE0A8093CD0A80915A1C80FF02C0EE
:103530000C94A10E1093CC0A8091641D9091651D8E
:1035400090930F1D80930E1D0C94A10E8091CD0AB7
:103550009091CE0A01979093CE0A8093CD0A8091E4
:10356000BD1C6091C31C7091C41C680F711D8091BB
:103570006A1D90916B1D0E94A0258093BD1C65C3A0
:103580008091CD0A9091CE0A01979093CE0A8093B4
:10359000CD0A80915A1C80FF58C380916C1D982FD2
:1035A000909591708E7F892B80936C1D4EC3809176
:1035B000591C90915A1C0E9408269093B71C809326
:1035C000B61C6091CD0A7091CE0A8091661D9091D3
:1035D000671D0E94B225282F80935C1C90935D1C70
:1035E0008093E51B8091591C8873C9F48091A41CB9
:1035F000E091B61CF091B71C882381F080915C1C8F
:1036000090915D1C918380838091CD0A9091CE0A28
:1036100001969093CE0A8093CD0A01C020838091B9
:10362000CD0A9091CE0A01969093CE0A8093CD0A4E
:103630000CC38091591C86958695869587708093DA
:10364000181D80915A1C80FD1FC0816080935A1CF8
:103650008091591C90915A1C0E940826DC0190937D
:10366000121D8093111D80910D1D843008F0EDC254
:10367000E091181DF0E0EE0FFF1FEC59F24E8D9116
:103680009C9191838083E1C28091591C90915A1C36
:103690000E940826EC019093B71C8093B61C809181
:1036A000181D882309F0D1C26091C51C7091C61CF9
:1036B0008091681D9091691D0E94B225998388832D
:1036C0008091C51C9091C61C02969093C61C809355
:1036D000C51CBBC28091591C8695869586958770BE
:1036E0008093901C80915A1C80FD1DC08160809346
:1036F0005A1C8091591C90915A1C0E940826DC018A
:103700009093B71C8093B61CE091901CE43008F0B5
:103710009CC2F0E0EE0FFF1FEC59F24E80819181C8
:103720008D939C9392C28091591C90915A1C0E9437
:1037300008269093B71C8093B61CE091901CF0E093
:10374000EE0FFF1FE354F34E8091B41C9091B51C13
:10375000918380837AC28091CD0A9091CE0A01979D
:103760009093CE0A8093CD0A20915A1C822F869581
:1037700090E0959587959595879583709070909337
:10378000631D8093621DEC01CC0FDD1F20FF18C06C
:103790006091C51C7091C61C8091681D9091691D37
:1037A0000E94B225CC59D24E998388838091C51C42
:1037B0009091C61C02969093C61C8093C51C45C26E
:1037C0006091C51C7091C61C625070407093C61CFD
:1037D0006093C51CCC59D24E488159818091681D97
:1037E0009091691D0E94DC2530C28091591C8695FC
:1037F0008695869587708093901C8091591C909136
:103800005A1C0E940826FC019093B71C8093B61C9A
:1038100081E08093231D80915A1C282F269580FFDC
:103820002AC18081918190935D1C80935C1C20FF54
:1038300011C18091901C823018F0843068F404C06B
:103840008091BF1C8F700AC08091BF1C61E10E94F3
:103850006D2D9093231DFEC08091BF1C8093231D6E
:10386000F9C08091901C833009F461C0843048F421
:10387000813019F160915C1C70915D1C8230D0F533
:103880000AC0853009F484C0853008F46DC08730E3
:1038900009F0DAC08DC0272F221F2227221F809116
:1038A0006C1D8E7F822B80936C1D660F771F90E0BE
:1038B00081709070862B972B18C090915C1C917032
:1038C00080916C1D8E7F892B80936C1D20915C1CD8
:1038D00030915D1C3695279580FD03C080E090E017
:1038E00002C080E090E8822B932B90935D1C809324
:1038F0005C1CAAC080916C1D282F21702093151D7F
:10390000972F991F9927991F8E7F892B80936C1D64
:10391000660F771F40E050E0222311F041E050E0B5
:10392000462B572B50935D1C40935C1C8DC080919F
:103930006C1D282F21702093151D90915C1C917097
:103940008E7F892B80936C1D40915C1C50915D1C77
:1039500056954795222319F480E090E002C080E05C
:1039600090E8842B952BC1CF20E080915C1C909136
:103970005D1C97FD21E080916C1D8E7F822B8093D2
:103980006C1D80915C1C90915D1C880F991F3AC042
:1039900090915C1C917080916C1D8E7F892B80931F
:1039A0006C1D80915C1C90915D1C969587959DCFB8
:1039B0001092151D80915C1C90915D1C97FF02C0B8
:1039C000A093151D90916C1DE091181DF0E0EE0F75
:1039D000FF1FE354F34E808181709E7F982B90935C
:1039E0006C1D20915C1C30915D1C36952795809153
:1039F000151D882319F480E090E002C080E090E873
:103A0000822B932B90935D1C80935C1C20E0892B70
:103A100009F421E02295220F220F207C80916C1D59
:103A20008F7B822B80936C1D20E080915C1C909199
:103A30005D1C97FD21E027952227279580916C1D1D
:103A40008F77822B80936C1D8091231D81508093F2
:103A5000231D01C0A1E08091231D882309F001CF1F
:103A6000E091B61CF091B71C80915C1C90915D1C9C
:103A700091838083EAC080818093E51B20FFD8C0BA
:103A80008091901C823018F0843068F404C08091DA
:103A9000BF1C87700AC08091BF1C69E00E946D2D19
:103AA0009093231DC5C08091BF1C8093231DC0C06F
:103AB0008091901C833009F44AC0843038F48130FE
:103AC000E9F03091E51B823058F50AC0853009F4E1
:103AD00060C0853008F44EC0873009F0A3C065C0CF
:103AE000932F991F9927991F80916C1D8E7F892B89
:103AF00080936C1D330F8170832B0FC02091E51BC9
:103B0000922F917080916C1D8E7F892B80936C1DFC
:103B1000269580FF2DC080E8822B8093E51B82C014
:103B200080916C1D282F21702093151D932F991FB4
:103B30009927991F8E7F892B80936C1D932F990F46
:103B400080E0211181E0982B9093E51B6BC0809160
:103B50006C1D382F31703093151D2091E51B922F6D
:103B600091708E7F892B80936C1D2695332399F657
:103B700080E0D2CF90E08091E51B87FD91E08091BD
:103B80006C1D8E7F892B80936C1D8091E51B880FA7
:103B90002BC08091E51B282F217090916C1D9E7F7A
:103BA000922B90936C1D8695B8CF1092151D809125
:103BB000E51B87FF02C04093151D2091E51B9091E6
:103BC0006C1DE091181DF0E0EE0FFF1FE354F34E63
:103BD000808181709E7F982B90936C1D269580919B
:103BE000151D811180E8822B8093E51B90E08823CE
:103BF00009F491E09295990F990F907C80916C1D3A
:103C00008F7B892B80936C1D90E08091E51B87FD55
:103C100091E097959927979580916C1D8F77892BC7
:103C200080936C1D8091231D81508093231D01C0C2
:103C300041E08091231D882309F03ACFE091B61C22
:103C4000F091B71C8091E51B8083DF91CF911F918C
:103C50000F91FF90EF9008958F929F92BF92CF9215
:103C6000DF92EF92FF920F931F93CF93DF93EC01BC
:103C700063ED862E6AE0962E880E991ECC24DD24F4
:103C800039C0C114D10429F00894E11CF11C011DB4
:103C9000111DBB248FEFE8168FEFF80687E00807A9
:103CA00080E0180711F0BB24B3940E94A92B88234D
:103CB00019F0BB2029F424C0E1E0BE1611F320C0A6
:103CC0000E94812BF401808321960894C11CD11C91
:103CD00083E20E94712BC6018F719070892B21F4B1
:103CE00088E495E00E94742B0894811C911CF1E0FB
:103CF000BF1631F4BB24B394EE24FF248701D5CF43
:103D00008BEF96E00E94742BC050D140D093D20A22
:103D1000C093D10ADF91CF911F910F91FF90EF9047
:103D2000DF90CF90BF909F908F900895EF92FF9279
:103D30000F931F93DF93CF930F92CDB7DEB781E040
:103D400097E00E94742B91E0EE24FF24870110C0BD
:103D50000894E11CF11C011D111D90E08FEFE81685
:103D60008FEFF8068EE0080780E0180709F091E071
:103D700099830E94A92B9981882319F0992321F412
:103D800007C0913029F304C00E94812B81E001C05B
:103D900080E00F90CF91DF911F910F91FF90EF90F6
:103DA00008950F931F9384E097E00E94742B8091F5
:103DB000BD1C9091BE1C0E947D2C88E097E00E9463
:103DC000742B8091C31C9091C41C0E947D2C8EE0AA
:103DD00097E00E94742B8091BF1C9091C01C0E94A0
:103DE0007D2C84E197E00E94742B8091C11C9091FE
:103DF000C21C0E947D2C8AE197E00E94742B809166
:103E0000C51C9091C61C0E947D2C80E297E00E9408
:103E1000742B8091C71C9091C81C0E947D2C86E257
:103E200097E00E94742B8091C91C9091CA1C0E943B
:103E30007D2C8CE297E00E94742B8091CB1C90919A
:103E4000CC1C0E947D2C82E397E00E94742B809111
:103E50006A1D90916B1D0E947D2C88E397E00E9463
:103E6000742B8091641D9091651D0E947D2C8EE3C2
:103E700097E00E94742B8091681D9091691D0E94AB
:103E80007D2C84E497E00E94742B8091661D9091B4
:103E9000671D0E947D2C8AE497E00E94742B80911C
:103EA000CD0A9091CE0A0E947D2C80E597E00E9479
:103EB000742B80916D1D8695869586958170805DA9
:103EC0000E94712B80916D1D869586958170805D15
:103ED0000E94712B80916D1D86958170805D0E947E
:103EE000712B80916D1D8170805D0E94712B8DE220
:103EF0000E94712B0DE61DE1F80182918F01881F50
:103F00008827881F805D0E94712BF801808182952F
:103F1000869586958170805D0E94712BF801808165
:103F200082958170805D0E94712BF8018081869559
:103F300086958170805D0E94712BF801808181706F
:103F4000805D0E94712B88E495E00E94742B1F9184
:103F50000F9108950F931F93CF93DF93282FEA01BA
:103F60004617570730F07093D00A6093CF0A01E0EC
:103F700009C080918D0A90918E0A9093D00A809307
:103F8000CF0A00E02F3F29F47093D00A6093CF0A44
:103F900000E010E08091661D9091671D0E947D2CCD
:103FA0008AE30E94712B8091CF0A9091D00A0E94DF
:103FB0007D2C82E697E00E94742B8091CF0A90912D
:103FC000D00A6EE57CE10E94D0018EE59CE10E9462
:103FD000742B88E495E00E94742B1F5F013041F43C
:103FE0008091CF0A9091D00AC817D90798F602C0DD
:103FF000103180F28091CF0A9091D00A90938E0A6E
:1040000080938D0ADF91CF911F910F9108950F93A7
:104010001F93CF93DF93CDECDCE110E000E211239E
:1040200039F4802F0E94642C85E697E00E94742B5F
:1040300088810E94642C1F5F103131F488E495E080
:104040000E94742B10E003C080E20E94712B219625
:104050000F3511F00F5FE3CFDF91CF911F910F91DB
:1040600008953F924F925F926F927F928F929F92AC
:10407000AF92BF92CF92DF92EF92FF920F931F9376
:10408000DF93CF93CDB7DEB764970FB6F894DEBF5A
:104090000FBECDBF382E6090661D7090671D46170D
:1040A000570718F06B015A0109C0C0908B0AD090D5
:1040B0008C0AAFE7AA2EB12CAC0CBD1C0894A11C35
:1040C000B11CB0928C0AA0928B0A0894A108B10886
:1040D000FFE0EF2EF12CEC20FD20E114F10411F4AF
:1040E000FF2424C0C3010E947D2C8AE30E94712B0F
:1040F000C601807F0E947D2C82E697E00E94742B8F
:1041000000E010E04E010894811C911CE0E25E2E5C
:1041100089E697E00E94742BF401E00FF11F5082B2
:104120000F5F1F4F0E151F0598F3FE2C4E010894CC
:10413000811C911C71E1472E512C4C0E5D1E4DC00F
:10414000FF2069F4C3010E947D2C8AE30E94712B39
:10415000C6010E947D2C82E697E00E94742B0F2DF1
:1041600010E0332029F4C301B6010E94A02504C049
:10417000C301B6010E946A29080D191DF801808348
:10418000F401EF0DF11D80810E94642CF394F0E1A5
:10419000FF16E9F489E697E00E94742B8401F80188
:1041A000F0808F2D90E00E94F52E892B11F08F2D3D
:1041B00001C08EE20E94712B0F5F1F4F0415150581
:1041C00071F788E495E00E94742BFF2403C080E21D
:1041D0000E94712B0894C11CD11CAC14BD0408F0C2
:1041E000AFCF64960FB6F894DEBF0FBECDBFCF91B0
:1041F000DF911F910F91FF90EF90DF90CF90BF90D4
:10420000AF909F908F907F906F905F904F903F9076
:1042100008951F93182F0E943A2F009711F48FEFE3
:1042200001C0811B1F910895AF92BF92DF92EF9260
:10423000FF920F931F93DF93CF93CDB7DEB7CA558D
:10424000D0400FB6F894DEBF0FBECDBF8E010F5F1A
:104250001F4F88E2F80111928A95E9F7C8010E9480
:10426000B82B8981882311F48DE033C1C8016DE634
:1042700077E00E940B2F8C01B9E2AB2EB12CAC0E73
:10428000BD1EC501B8010E94242F7501DD24D39401
:104290000CC080E090E06DE677E00E940B2F8C016F
:1042A000D394C701B8010E94242F8AE090E0E80E61
:1042B000F91E012B71F71D2D125013300CF008C19F
:1042C000F50101900020E9F73197EA19FB093297CF
:1042D00008F0FEC089A590E00E94032F982F8093DC
:1042E000241D8237F8F4803708F0F5C0893609F4C8
:1042F00055C08A3668F4883608F0EAC0853608F07A
:10430000EAC08F3309F4E7C0843609F0E1C01FC06A
:104310008C3608F4DDC08E3608F4DDC08F3609F027
:10432000D7C040C0853709F48AC0863730F4833758
:1043300071F1843708F07FC053C0883709F4BDC0DD
:104340008A3709F4C8C0863709F0C2C0C4C011302A
:1043500021F0123009F077C017C082E08093291D48
:10436000C5010A9660E070E040E150E00E94DD2D5A
:104370009B017093261D6093251D21583F4F30935C
:10438000281D2093271DA7C01093291D76C011302A
:1043900009F49EC0123009F09BC06FC0123009F4BE
:1043A00097C05BC0C5010A9660E070E040E150E054
:1043B0000E94DD2D7093261D6093251DC501449636
:1043C00060E070E040E150E00E94DD2D7093281D18
:1043D0006093271D6F3F710509F008F47CC078C019
:1043E000113009F475C0123071F582E08093291DF7
:1043F000CE01C3960E947B2FBC018FE697E00E94FE
:10440000092187FD65C0833109F484E185959927E9
:1044100087FD90959093261D8093251DC501449698
:1044200060E070E040E150E00E94DD2D70932B1DB4
:1044300060932A1D50C011160CF44AC04CC01130B4
:1044400049F01230B9F0112309F042C081E08093A5
:10445000291D41C082E08093291DC5010A9660E0B4
:1044600070E040E150E00E94DD2D7093261D6093C6
:10447000251D31C083E08093291DC5010A9660E0A7
:1044800070E040E150E00E94DD2D7093261D6093A6
:10449000251DC501449660E070E040E150E00E94B7
:1044A000DD2D7093281D6093271D2091251D3091CF
:1044B000261D6217730778F40BC080E48093241DD7
:1044C000113049F48BA9853631F49093241D03C033
:1044D00080E48093241DC65ADF4F0FB6F894DEBFE8
:1044E0000FBECDBFCF91DF911F910F91FF90EF9045
:1044F000DF90BF90AF9008950E94980E0E9474299B
:104500008823D1F388E00E940F0EF6CF8CE299E069
:104510000E94742B8CE599E00E94742B82E999E04B
:104520000E94742B89EC99E00E94742B80E09AE041
:104530000E94742B82E29AE00E94742B85E49AE038
:104540000E94742B88E69AE00E94742B8AE897E018
:104550000E94742B85EC97E00E94742B0E9414211A
:1045600088E495E00E94742B8091241D8F3609F415
:1045700043C1803728F5863609F482C1873680F436
:104580008F3309F473C1803420F48D3009F074C185
:1045900077C1833609F494C0843609F06DC12EC00A
:1045A000893609F475C08A3620F4873609F064C16B
:1045B00067C08C3609F479C08D3609F05DC1DFC063
:1045C000843709F4B7C0853768F4813709F451C1DD
:1045D000813708F41EC1823709F480C0833709F09F
:1045E0004BC144C0863709F43EC18637E8F08837AE
:1045F00009F416C18A3709F03FC130C18091291DE5
:10460000813031F480E061E070E040E050E009C0CA
:104610006091251D7091261D4091271D5091281DE8
:1046200080E00E9431202CC18091291D813031F41D
:1046300080E061E070E040E050E015C0823051F46D
:104640006091251D7091261D4091271D5091281DB8
:104650008FEF09C06091251D7091261D4091271D87
:104660005091281D80E00E94AA1F0AC16091251D5B
:104670007091261D4091271D5091281D81E0D1CFBA
:104680008091D10A9091D20A892B09F4B2C0E0C07E
:104690004091251D5091261D80E060E020E030E033
:1046A0000E94AF290E94642CEBC085EE97E00E9427
:1046B000742B80E091E00E942C1E0E949301E0C0C8
:1046C0008DEF97E00E94742BE3EDFBE011928CE0FC
:1046D000E435F807D9F780E198E0D0C08091291D32
:1046E000813071F1E091251DF091261DE830F10532
:1046F00028F4EE0FFF1FE354F34E0CC03897F093ED
:10470000261DE093251DE430F10558F4EE0FFF1F40
:10471000EC59F24E80912A1D90912B1D918380833C
:10472000AFC080912A1D90912B1D9093CE0A80934B
:10473000CD0AA6C00E94980E88E495E00E94742BD2
:104740000E94D11E8091CD0A9091CE0A6EE57CE147
:104750000E94D0018091661D9091671D0E947D2C62
:104760008AE30E94712B8091CD0A9091CE0A0E941B
:104770007D2C80E20E94712B8EE59CE17FC08091B0
:10478000D10A9091D20A892BA1F186E198E00E948A
:10479000742B0E94812B90E00E94032F8093970836
:1047A000893719F08E3689F76BC089E70E94712B23
:1047B00084E398E00E94742B4091D10A5091D20A70
:1047C00040505F4F83ED9AE060E070E00E94B32FAD
:1047D0008EE59CE161E478E00E94242F8EE59CE167
:1047E0006AEF7FE045E050E00E94B32F86E498E056
:1047F00045C087EC97E042C04091251D5091261D91
:104800002091271D3091281D81E060E00E94AF2992
:1048100037C08EE498E00E94742B0E94072030C0BD
:104820008EE59CE16AEF7FE045E050E00E949B2F1F
:1048300081E498E06EE57CE10E941B2F009759F41B
:1048400083ED9AE060E070E04FEF5FE00E949B2F05
:104850000E947C2215C087E598E010C00E94930159
:104860000E94D11E0DC00E94020E0AC00E94B50D0A
:1048700007C089E798E002C08EE798E00E94742B99
:1048800088E495E00E94742B8091241D813709F003
:1048900061CE08950E949E290E94272B0E947C29A8
:1048A00080E091E09093CE0A8093CD0A0E94362B4F
:1048B0000E94961E813019F40E948622F9CF8EE55F
:1048C0009CE16AEF7FE045E050E00E949B2F81E48D
:1048D00098E06EE57CE10E941B2F009759F483ED70
:1048E0009AE060E070E04FEF5FE00E949B2F0E9433
:1048F0007C22DECF87E598E00E94742BD9CF262F4B
:10490000217090916C1D9E7F922B90936C1D70E096
:1049100033E0769567953A95E1F76170660F660F1B
:10492000660F90916D1D977F962B90936D1D813032
:10493000A1F420E04115510509F421E02295220F50
:10494000220F207C80916C1D8F73952F9078822B85
:10495000892B80936C1D80E112C0242F90E04423AA
:1049600009F491E09295990F990F907C80916C1DBC
:104970008F732078892B822B80936C1D88E090E0C8
:1049800040FD9F5F815019F056954795F9CF90955E
:104990009170990F990F80916C1D8B7F892B80935B
:1049A0006C1D08950895EF92FF920F931F93DF936C
:1049B000CF9300D00F92CDB7DEB7982F8A01613028
:1049C00009F05DC0843099F1853048F48130B9F048
:1049D000813078F0823059F1833039F41DC087304E
:1049E00091F1873050F18830A1F1EE24FF2460E08E
:1049F00036C0FA01E080F180E20EF31E2FC08091F4
:104A00006C1D81707901E80EF11CFA010190F081B2
:104A1000E02DEE0EFF1E22C0FA01E080F180E21AC6
:104A2000F30A80916C1D8170E81AF10817C0F80133
:104A3000E080F180E21AF30A11C0FA01E080F1800F
:104A4000E222F3220BC0FA01E080F180E22AF32A8D
:104A500005C0FA01E080F180E226F3266FB781E01D
:104A6000A7019B830E947F249B81943009F45EC040
:104A7000963009F45BC0F801F182E08257C08430BF
:104A8000A1F1853048F48130C1F0813078F0823076
:104A900061F1833039F41DC0873091F1873060F1C6
:104AA000883091F1EE24FF2460E034C0FA01808167
:104AB000E82EFF24E20EF11C2CC0FA018081E22EC8
:104AC000FF24E80EF11C80916C1D8170E80EF11C32
:104AD00020C0FA018081E82EFF24E21AF1088091BB
:104AE0006C1D8170E81AF10814C0F8018081E82E6D
:104AF000FF24E21AF1080DC0FA018081282307C0C3
:104B0000FA018081282B03C0FA0180812827E22E38
:104B1000FF246FB780E0A7019B830E947F249B81C5
:104B2000943021F0963011F0F801E0820F900F9050
:104B30000F90CF91DF911F910F91FF90EF9008950B
:104B4000FB0144E0880F991F4A95E1F7E80FF91F30
:104B500082E2E030F80724F4ED52F54F80810895A9
:104B600080810895FB0154E0880F991F5A95E1F761
:104B7000E80FF91F82E2E030F80750F4ED52F54FEC
:104B80008081682F70E0918180E0682B792B02C0D2
:104B900060817181CB010895FB0164E0880F991F4A
:104BA0006A95E1F7E80FF91F82E2E030F80710F4A8
:104BB000ED52F54F40830895FB0174E0880F991F73
:104BC0007A95E1F7E80FF91F82E2E030F80710F478
:104BD000ED52F54F408351830895FC01E353F34EAA
:104BE00060830895FC01E353F34E6083718308955D
:104BF000FC01E353F34E80810895FC01E353F34E2F
:104C0000208130E0918180E0282B392BC901089563
:104C1000492F20916A1D30916B1D3093631D2093A5
:104C2000621D782F7295769576957370682F6770F0
:104C3000713041F0723031F1E0E0F0E0733009F0B2
:104C400047C0EEC08091CD0A9091CE0AE091661DDA
:104C5000F091671D24E0EE0FFF1F2A95E1F7E80FA2
:104C6000F91F22E2E030F20714F4ED52F54F2081F3
:104C7000E22FFF27E7FDF09501969093CE0A8093EF
:104C8000CD0A26C04091CD0A5091CE0AE091661D12
:104C9000F091671D84E0EE0FFF1F8A95E1F7E40FA6
:104CA000F51F82E2E030F80750F4ED52F54F8081B5
:104CB000282F30E0918180E0282B392B02C0208101
:104CC0003181F9014E5F5F4F5093CE0A4093CD0A78
:104CD000633071F1643028F46130A1F06230E8F49F
:104CE0000CC0653099F1653060F16630A1F1673034
:104CF00009F46BC020E030E06EC02091C91C3091F7
:104D0000CA1C04C02091CB1C3091CC1C8091C31CC8
:104D10009091C41C280F391F5CC02091C91C309190
:104D2000CA1C8091C71C9091C81C280F391F42C013
:104D30002091CB1C3091CC1C8091C71C9091C81C39
:104D4000E9CF2091C91C3091CA1C43C02091CB1CD3
:104D50003091CC1C3EC0772329F54091CD0A50916B
:104D6000CE0AE091661DF091671DB4E0EE0FFF1FC3
:104D7000BA95E1F7E40FF51F22E2E030F20748F4BC
:104D8000ED52F54F918180E0208130E0282B392BC6
:104D900002C0208131814E5F5F4F5093CE0A409315
:104DA000CD0A19C0F093941CE093931C2091C71C6A
:104DB0003091C81C2E0F3F1F8091681D9091691D76
:104DC0009093631D8093621D06C02091C31C309197
:104DD000C41C2E0F3F1F8091CC0A813041F480917A
:104DE0000E1D90910F1D9093631D8093621D809105
:104DF000621D9091631DA4E0880F991FAA95E1F7A9
:104E0000820F931F42E28030940720F4AC014D5290
:104E1000554F01C0AC013093B51C2093B41C13C096
:104E2000862F90E040FF04C0AC01440F551F09C01D
:104E300066956695AC0143705070440F551F460F40
:104E4000511D4354534E1092CC0ACA0108959091BB
:104E5000591C96959695969597709093901C809175
:104E60005A1C292F30E080FF03C0220F331F08C0D7
:104E70009695969523703070220F331F290F311DA0
:104E80002354334E3093121D2093111D8091591CD1
:104E900090915A1C0E9408269C019093171D8093A4
:104EA000161D80915A1C869580FF0CC08091111DA3
:104EB0009091121D3093121D2093111D9093171D78
:104EC0008093161D0895DF92EF92FF920F931F9328
:104ED000DF93CF93CDB7DEB762970FB6F894DEBFFE
:104EE0000FBECDBFE62ED72EF42EDE011196EFE8D1
:104EF000FAE026E001900D922150E1F718861F821A
:104F00006E2D7D2D40E150E00E94852FAE2DBD2DF0
:104F1000FD0101900020E9F73197EA1BFB0BFE1A17
:104F20008E01075F1F4FC801BE016F5F7F4F4F2D7E
:104F300050E00E942B2FF801EF0DF11D1082C801E7
:104F40006E2D7D2D0E94102F8E2D9D2DB8010E945B
:104F5000242F8E2D9D2D0E947B2F62960FB6F894E4
:104F6000DEBF0FBECDBFCF91DF911F910F91FF909C
:104F7000EF90DF9008957F928F929F92AF92BF92B1
:104F8000CF92DF92EF92FF920F931F93DF93CF9315
:104F9000CDB7DEB7A8970FB6F894DEBF0FBECDBF72
:104FA0004C015A0184E1DE011196FD01982F119206
:104FB0009A95E9F79E012B5E3F4FF90111928A9570
:104FC000E9F7762E72947694769483E0782207E05F
:104FD000C02EC622F1E07F1629F082E0781609F093
:104FE00067C035C0E091661DF091671D14E0EE0FBB
:104FF000FF1F1A95E1F7E80DF91D92E2E030F9077D
:1050000014F4ED52F54FD080D7FE03C067E97AE083
:1050100002C069E97AE07E010894E11CF11CC70135
:105020000E94242FD7FCD1948E010B5E1F4F8D2D33
:10503000992787FD9095B80142E00E946327C70138
:10504000B8010E94102F0894811C911C35C0CD011D
:1050500069E97AE00E94242FE091661DF091671DB6
:10506000B4E0EE0FFF1FBA95E1F7E80DF91D82E2FB
:10507000E030F80750F4ED52F54F8081282F30E0F2
:10508000918180E0282B392B02C020813181C90118
:10509000BE016B5E7F4F44E00E946327BC01CE01DE
:1050A00001960E94102FE2E0F0E08E0E9F1E04C0D9
:1050B000F3E07F1609F48BC08091CC0A813031F483
:1050C000C50168EB7CE10E94242F02C0F50110822B
:1050D000F3E0CF1609F1FC1530F081E0C816A1F01D
:1050E0008C15B0F00DC095E0C916F1F0C916C0F0EE
:1050F000E6E0CE16E9F0F7E0CF1609F050C04AC05E
:10510000C5016BE97AE049C0C50162EA7AE045C0B1
:10511000C50169EA7AE041C0C50160EB7AE03DC0B3
:10512000C50167EB7AE039C0C5016BEB7AE035C0A9
:10513000772061F5E091661DF091671DA4E0EE0F08
:10514000FF1FAA95E1F7E80DF91D82E2E030F807AC
:1051500050F4ED52F54F8081082F10E0918180E0EE
:10516000082B192B02C000811181C5016FEB7AE079
:105170000E94102FC801BE016F5F7F4F44E00E9464
:105180006327E2E0F0E08E0E9F1E09C0C50161ECCE
:105190007AE003C0C50165EC7AE00E94102F80918F
:1051A000CC0A813041F480910E1D90910F1D909397
:1051B000631D8093621DC501BE016F5F7F4F0E941A
:1051C000102FC50169EC7AE00E94102F12C0EC2D5F
:1051D000F0E070FF05C0EE0FFF1FE355F74F04C06E
:1051E000EE0FFF1FE153F74F60817181C5010E94EF
:1051F000242F1092CC0AC401A8960FB6F894DEBFF3
:105200000FBECDBFCF91DF911F910F91FF90EF9017
:10521000DF90CF90BF90AF909F908F907F90089538
:105220000F931F93DF93CF93CDB7DEB72A970FB6B7
:10523000F894DEBF0FBECDBF8C0180915A1C80FF59
:105240000CC0E091591CE695E695E695E770F0E014
:10525000EE0FFF1FE355F74F0BC0E091591CE69589
:10526000E695E695E770F0E0EE0FFF1FE153F74F8C
:105270006081718185EA9CE10E94242F6091591C14
:1052800070915A1CC80145E95CE10E94BB278091DE
:105290005A1C869580FF13C08E010F5F1F4FC801F7
:1052A00065EA7CE10E94242F85EA9CE165E97CE1C6
:1052B0000E94242F85E99CE1B8010E94242F2A96A0
:1052C0000FB6F894DEBF0FBECDBFCF91DF911F9117
:1052D0000F91089534E0880F991F3A95E1F7860FF2
:1052E000971F0E94AB2F08958091D41A882319F03C
:1052F0001092D41A81E0089589EF87BD92E094BDA1
:1053000083E085BD90936E00789408951F920F926C
:105310000FB60F9211248F938091D31A8F5F8093D1
:10532000D31A823329F481E08093D41A1092D31ACD
:105330008F910F900FBE0F901F901895EAE0F1E04B
:10534000808180688083EBE0F1E080818F778083CB
:105350008FE88093740080E8809375000895782F1B
:10536000F9018091741D84FF03C08FB18093701D7B
:105370008091741D81FF04C0809106018093711D8E
:105380008091741D80FF04C089B18F708093721D5D
:105390008091741D83FF0FC0809103012091000153
:1053A00090E083709070880F991F880F991F237069
:1053B000282B2093731D4234510509F45CC04334FB
:1053C000510540F44034510551F04134510509F084
:1053D000E4C021C04334510509F0DFC07BC0909187
:1053E000741D892F807609F0D8C0772331F490910D
:1053F000711D80E02091701DCEC094FD02C0E0932D
:10540000701D613009F0C9C08091741D81FDC5C057
:105410001092711DC2C08091741D82FDBEC07723A1
:10542000A9F48091731D90E064E0880F991F6A953C
:10543000E1F72091721D30E02F703070822B932B9A
:10544000582F44278091711D90E027C081FD02C034
:10545000E093711D613009F0A0C08091741D80FD42
:10546000F1C08F2F8F708093721DECC08F2F8F70C3
:105470008093731D92C02091741D22FD8EC07723EE
:1054800079F4922F80E03091731D3295307F209116
:10549000721D2F70322B432F50E0482B592B7FC0A9
:1054A00020FD04C08E2F8F708093721D8091741D1B
:1054B00083FD0AC0CF01807F907044E09695879568
:1054C0004A95E1F78093731D613009F066C0F0934F
:1054D000741D63C0713009F059C0E093741D2E2F04
:1054E0008E2F807601F5E4FF04C010BA8FEF81BBE8
:1054F00002C08FEF80BB23FF0BC0809104018C7F23
:1055000080930401809101018C7F8093010112C07E
:105510008091040183608093040180910101836084
:105520008093010111C010BA109204011092010180
:105530008FEF81BB8091050183608093050180918D
:10554000020183608093020122FD17C021FF06C083
:10555000109207018FEF8093080103C08FEF8093B3
:10556000070120FF06C08AB1807F8AB98BB18F60A6
:105570000BC08AB18F608AB910C0109207018FEFFB
:10558000809308011AB88FE08BB907C09091F11C85
:1055900080E02091741D422F7FCF40E050E02091A9
:1055A000741D822F8076B1F524FD03C08091701D9B
:1055B00081BB21FD04C08091711D8093080120FDF5
:1055C00008C08BB19091721D892B8BB98BB1892347
:1055D0008BB923FD1FC0209102018091731D382FCC
:1055E0003370232B20930201209102013223309348
:1055F00002012091050190E08C709070959587953F
:1056000095958795282B20930501209105018223EC
:10561000809305018091701D8093ED1C8091711D18
:105620008093EE1C9091731D9295907F8091721DD6
:105630008F70982B9093EF1C8091741D8093F01CB9
:10564000CA0108958091741D83FF10CFA6CF80E416
:1056500090E090936F1D80936E1D81E060E043E4C5
:1056600050E02BE930E00E94AF2908951092C50068
:1056700087E68093C400E0ECF0E080818260808364
:10568000E1ECF0E0808188618083A2ECB0E08C9155
:1056900086608C938081806880830895482F8091F4
:1056A000551B9091561B019660E870E00E948D2D6D
:1056B0009C018091571B9091581B28173907C9F3FB
:1056C000E091551BF091561BEB52F54E4083309301
:1056D000561B2093551B8091C10080628093C100AE
:1056E00008950E944E2B0895CF93DF93EC0103C0E1
:1056F00021960E944E2B88818823D1F7DF91CF918C
:1057000008952091D91B3091DA1B8091DB1B909179
:10571000DC1B28173907A9F3E091DB1BF091DC1B98
:10572000E75AF44E40818091DB1B9091DC1B01967F
:1057300060E870E00E948D2D9093DC1B8093DB1B52
:10574000842F08958091C00087FFFCCF8091C60010
:1057500008952091D91B3091DA1B8091DB1B909129
:10576000DC1B40E02817390709F041E0842F089539
:105770001F93CF93DF93EC0110E00E94812B8D30BB
:1057800039F4C10FD11D1882DF91CF911F91089577
:10579000883031F0FE01E10FF11D80831F5F0AC0E8
:1057A000112359F3115088E00E944E2B80E20E9491
:1057B0004E2B88E00E944E2BE0CFDC0160E001C060
:1057C0006F5FFD01E60FF11D808180538A30C0F3C9
:1057D00040E050E021E030E01BC06150FD01E60FE9
:1057E000F11D808190E0C097FC01E29FC001E39F22
:1057F000900DF29F900D1124480F591FC901880F79
:10580000991F73E0220F331F7A95E1F7280F391F94
:10581000662319F7CA010895CF92DF92FF920F9382
:105820001F93DF93CF93CDB7DEB727970FB6F894CA
:10583000DEBF0FBECDBF9C018B01F42E81E084172B
:10584000A8F540E06E010894C11CD11CC9016F2D60
:1058500070E00E94792DBC018A30910510F087E339
:1058600001C080E3F601E40FF11D860F80834F5FD6
:10587000C9016F2D70E00E94792D9B0161157105A2
:1058800029F7542F90E09E012F5F3F4F4150F801C0
:10589000E90FF11DD901A40FB11D8C9180839F5F89
:1058A0004423A1F7050F111DF801108227960FB6AA
:1058B000F894DEBF0FBECDBFCF91DF911F910F9146
:1058C000FF90DF90CF9008951F93182F982F9295F7
:1058D0009F709A3010F087E301C080E3890F0E9427
:1058E0004E2B912F9F709A3010F087E301C080E318
:1058F000890F0E944E2B1F9108951F93182F892FF7
:105900000E94642C812F0E94642C1F910895EF92B5
:10591000FF920F931F93CF93DF937C0100E010E879
:10592000C0E0D0E0C8018E219F21892B11F480E3D3
:1059300001C081E30E944E2B169507952196C03138
:10594000D10581F7DF91CF911F910F91FF90EF90DB
:1059500008951F93182F6AE00E946D2D805D0E94AC
:105960004E2B812F6AE00E946D2D892F805D0E9451
:105970004E2B1F9108951F920F920FB60F920BB6E8
:105980000F9211242F933F935F936F937F938F9385
:105990009F93AF93BF93EF93FF932091551B30914B
:1059A000561B8091571B9091581B2817390731F4CB
:1059B0008091C1008F7D8093C10016C0E091571B7C
:1059C000F091581BEB52F54E80818093C600809178
:1059D000571B9091581B019660E870E00E948D2D36
:1059E0009093581B8093571BFF91EF91BF91AF91FC
:1059F0009F918F917F916F915F913F912F910F9028
:105A00000BBE0F900FBE0F901F9018951F920F9214
:105A10000FB60F920BB60F9211242F933F934F9313
:105A20005F936F937F938F939F93AF93BF93EF9306
:105A3000FF934091C6008091C00082FD1CC0809100
:105A4000D91B9091DA1B019660E870E00E948D2DC1
:105A50009C018091DB1B9091DC1B2817390759F0C2
:105A6000E091D91BF091DA1BE75AF44E4083309352
:105A7000DA1B2093D91BFF91EF91BF91AF919F91BA
:105A80008F917F916F915F914F913F912F910F90E7
:105A90000BBE0F900FBE0F901F901895629FD00104
:105AA000739FF001829FE00DF11D649FE00DF11DD9
:105AB000929FF00D839FF00D749FF00D659FF00D88
:105AC0009927729FB00DE11DF91F639FB00DE11D75
:105AD000F91FBD01CF0111240895991B79E004C07D
