S01000005039746A75696E6F2E73726563F2
S113000071C000008CC000008AC0000088C00000DD
S113001086C0000084C0000082C0000080C00000D0
S11300207EC000007CC000007AC0000078C00000E0
S113003076C00000F8C0000072C0000070C000006C
S11300406EC000006CC000006AC0000068C0000000
S113005066C0000064C0000062C0000060C0000010
S11300605EC000005CC000005AC0000058C0000020
S113007056C0000054C0000052C0000050C0000030
S11300804EC000004CC000004AC0000048C0000040
S113009046C0000044C0000042C0000040C0000050
S11300A03EC000003CC000003AC0000038C0000060
S11300B036C0000034C0000032C0000030C0000070
S11300C02EC000002CC000002AC0000028C0000080
S11300D026C0000024C0000022C0000020C0000090
S11300E01EC0000011241FBECFEFD1E2DEBFCDBF82
S11300F012E0A0E0B2E0ECEBF2E000E00BBF02C0E3
S113010007900D92A430B107D9F722E0A4E0B2E041
S113011001C01D92A430B207E1F764D0CDC070CF06
S1130120909102029F5F89E8989F812D1124829506
S1130130869587702CE3829F901911249093020274
S1130140911121C0909101029F5F89E8989F812DB0
S113015011248295869587702CE3829F901911242F
S11301609093010291110FC0809100028F5F9BEA6E
S1130170899F912D112492959F7028E1929F801957
S11301801124809300020895CF93DF93D82FCDECF0
S11301908C9FC12D1124C695C695C69580E38C0FFE
S11301A083D0CC0F8C2F880F880FC80F8D2F8C1BFA
S11301B0805D7AD0DF91CF9108958AE075D08DE08B
S11301C073D08091000290E0DFDF8AE36DD08091EC
S11301D0010290E0D9DF8AE367D08091020290E0C7
S11301E0D3CF089580E090E046D001D0FFCF1092A5
S11301F0700080E28093B6008FEF8093B30010927A
S1130200B20082E08093B00085E08093B100E6EB19
S1130210F0E080818F71E9F787E087BB82E080930B
S11302207000789408951F920F920FB60F921124C4
S11302300BB60F922F933F934F935F936F937F93DC
S11302408F939F93AF93BF93EF93FF9369DFB5DFD2
S1130250FF91EF91BF91AF919F918F917F916F919A
S11302605F914F913F912F910F900BBE0F900FBE56
S11302700F901F90189522E02093C00028E120934E
S1130280C10026E02093C200892B39F48FEC90E062
S11302909093C5008093C400089587E690E09093FE
S11302A0C5008093C4000895E0ECF0E0908195FFD0
S10F02B0FDCF8093C6000895F894FFCFA2
S10702BC173B3200B6
S9030000FC
