:1000000071C000008CC000008AC0000088C00000E1
:1000100086C0000084C0000082C0000080C00000D4
:100020007EC000007CC000007AC0000078C00000E4
:1000300076C000001FC1000072C0000070C0000048
:100040006EC000006CC000006AC0000068C0000004
:1000500066C0000064C0000062C0000060C0000014
:100060005EC000005CC000005AC0000058C0000024
:1000700056C0000054C0000052C0000050C0000034
:100080004EC000004CC000004AC0000048C0000044
:1000900046C0000044C0000042C0000040C0000054
:1000A0003EC000003CC000003AC0000038C0000064
:1000B00036C0000034C0000032C0000030C0000074
:1000C0002EC000002CC000002AC0000028C0000084
:1000D00026C0000024C0000022C0000020C0000094
:1000E0001EC0000011241FBECFEFD1E2DEBFCDBF86
:1000F00012E0A0E0B2E0E6E3F3E000E00BBF02C0F4
:1001000007900D92A433B107D9F722E0A4E3B2E03F
:1001100001C01D92A633B207E1F76BD00AC170CFC0
:10012000409302026093010280930002089590912F
:1001300002029F5F89E8989F812D11248295869500
:1001400087702CE3829F90191124909302029111E1
:1001500021C0909101029F5F89E8989F812D112411
:100160008295869587702CE3829F90191124909335
:10017000010291110FC0809100028F5F9BEA899F5D
:10018000912D112492959F7028E1929F801911243E
:10019000809300020895CF93DF93D82FCDEC8C9FEE
:1001A000C12D1124C695C695C69580E38C0FABD0A2
:1001B000CC0F8C2F880F880FC80F8D2F8C1B805D64
:1001C000A2D0DF91CF9108958AE09DD08DE09BD0A1
:1001D0008091000290E0DFDF8AE395D080910102F8
:1001E00090E0D9DF8AE38FD08091020290E0D3CFF4
:1001F000089580E090E06ED084E005D047E36BE3A3
:1002000087E18EDFFFCF1092700090E29093B600EE
:100210009FEF9093B3001092B20092E09093B000E1
:1002200095E09093B100E6EBF0E090819F71E9F7E3
:1002300097E097BB92E09093700078949FEF980FAF
:10024000983018F48093350206C083E092E063D0C2
:1002500081E0809335021092340208959091350226
:1002600080913402981304C01092340281E0089502
:1002700080E008951F920F920FB60F9211240BB6D3
:100280000F922F933F934F935F936F937F938F932F
:100290009F93AF93BF93EF93FF93809134028F5F4F
:1002A00080933402DBDF882311F041DF8DDFFF9183
:1002B000EF91BF91AF919F918F917F916F915F91DE
:1002C0004F913F912F910F900BBE0F900FBE0F904B
:1002D0001F90189522E02093C00028E12093C100D0
:1002E00026E02093C200892B39F48FEC90E09093A4
:1002F000C5008093C400089587E690E09093C50000
:100300008093C4000895E0ECF0E0908195FFFDCF6C
:100310008093C6000895CF93DF93EC0188818823F2
:1003200029F02196F0DF89918111FCCFDF91CF91E7
:060330000895F894FFCFD0
:10033600173B320A0D536567206E6F207065726D2C
:10034600697469646F732C20317365672073656CFB
:10035600656363696F6E61646F2064656661756C61
:04036600740A0D0008
:00000001FF
