:1000000071C000008CC000008AC0000088C00000E1
:1000100086C0000084C0000082C0000080C00000D4
:100020007EC000007CC000007AC0000078C00000E4
:1000300076C0000073C1000072C0000070C00000F4
:100040006EC000006CC000006AC0000068C0000004
:1000500066C00000F1C0000062C0000060C0000087
:100060005EC000005CC000005AC0000058C0000024
:1000700056C0000054C0000052C0000050C0000034
:100080004EC000004CC000004AC0000048C0000044
:1000900046C0000044C0000042C0000040C0000054
:1000A0003EC000003CC000003AC0000038C0000064
:1000B00036C0000034C0000032C0000030C0000074
:1000C0002EC000002CC000002AC0000028C0000084
:1000D00026C0000024C0000022C0000020C0000094
:1000E0001EC0000011241FBECFEFD1E2DEBFCDBF86
:1000F00012E0A0E0B2E0E4E8F4E000E00BBF02C0F0
:1001000007900D92A035B107D9F722E0A0E5B2E043
:1001100001C01D92A435B207E1F76BD0B1C170CF19
:10012000409302026093010280930002089590912F
:1001300002029F5F89E8989F812D11248295869500
:1001400087702CE3829F90191124909302029111E1
:1001500021C0909101029F5F89E8989F812D112411
:100160008295869587702CE3829F90191124909335
:10017000010291110FC0809100028F5F9BEA899F5D
:10018000912D112492959F7028E1929F801911243E
:10019000809300020895CF93DF93D82FCDEC8C9FEE
:1001A000C12D1124C695C695C69580E38C0F01D14B
:1001B000CC0F8C2F880F880FC80F8D2F8C1B805D64
:1001C000F8D0DF91CF9108958AE0F3D08DE0F1D09F
:1001D0008091000290E0DFDF8AE3EBD080910102A2
:1001E00090E0D9DF8AE3E5D08091020290E0D3CF9E
:1001F0000895CF93DF93CDB7DEB764970FB6F89429
:10020000DEBF0FBECDBFBAD083E092E0DAD06091FE
:10021000C4007091C5004AE0CE010196E0D0CE0145
:100220000196CFD08CE492E0CCD082E040D047E37E
:100230006BE387E175DFFFCF1F920F920FB60F922E
:1002400011240BB60F922F933F934F935F936F93AD
:100250007F938F939F93AF93BF93EF93FF9380917F
:100260005002909151020196909351028093500256
:10027000883E934049F45BDF8CE492E0A2D0A4DF97
:100280001092510210925002FF91EF91BF91AF91E5
:100290009F918F917F916F915F914F913F912F919E
:1002A0000F900BBE0F900FBE0F901F9018951092DD
:1002B000700090E29093B6009FEF9093B30010927D
:1002C000B20092E09093B00095E09093B100E6EB1D
:1002D000F0E090819F71E9F797E097BB92E09093EF
:1002E000700078949FEF980F983018F48093530221
:1002F00006C08EE192E065D081E0809353021092B7
:10030000520208959091530280915202981304C0B2
:100310001092520281E0089580E008951F920F929A
:100320000FB60F9211240BB60F922F933F934F935A
:100330005F936F937F938F939F93AF93BF93EF934D
:10034000FF93809152028F5F80935202DBDF8823FC
:1003500011F0EDDE39DFFF91EF91BF91AF919F91E9
:100360008F917F916F915F914F913F912F910F905E
:100370000BBE0F900FBE0F901F9018958EEF8DB98A
:1003800082E08093C00098E19093C10096E0909342
:10039000C20014BC85BD6099FECF16BC609BFECF29
:1003A00015BC86B590E001979093C5008093C4007A
:1003B0000895E0ECF0E0908195FFFDCF8093C600BA
:1003C0000895CF93DF93EC018881882329F021964B
:1003D000F0DF89918111FCCFDF91CF9108950F93C8
:1003E0001F93CF93DF93FC019B01C0E0D0E0042F6B
:1003F00010E002C0EC01FD01C901B8012DD0262F8B
:10040000372F8A30910510F0895C01C0805DDF01D3
:1004100011968083CE0101962115310559F711827D
:10042000A81BB90B209799F0FD01A80FB91F80E018
:1004300090E020813E91231711F030832C93019698
:1004400031969E01281B390B8217930790F3DF9199
:10045000CF911F910F910895AA1BBB1B51E107C0BB
:10046000AA1FBB1FA617B70710F0A61BB70B881F44
:10047000991F5A95A9F780959095BC01CD010895D3
:04048000F894FFCF1E
:10048400173B320A0D4175746F62617564696E675A
:1004940020646F6E652E2055425252303D000A0D85
:1004A400536567206E6F207065726D697469646F3F
:1004B400732C20317365672073656C656363696FA2
:1004C4006E61646F2064656661756C740A0D00006A
:00000001FF
